:020000040000FA
:10000000F010002085010000911200009312000002
:1000100000000000000000000000000000000000E0
:100020000000000000000000000000009512000029
:10003000000000000000000097120000991200006C
:10004000A1120000A3120000A5120000AD120000D2
:10005000B5120000BD120000BF120000C112000066
:10006000C3120000C5120000C7120000C912000030
:10007000CB120000D3120000D5120000D7120000EE
:10008000D9120000DB120000DD120000DF120000B8
:10009000E1120000E312000097010000E5120000E9
:1000A000E7120000E912000000F002F800F03EF84C
:1000B0000CA030C8083824182D18A246671EAB467D
:1000C00054465D46AC4201D100F030F87E460F3E0A
:1000D0000FCCB6460126334200D0FB1AA246AB46EF
:1000E000334318473C1C00005C1C0000103A02D34C
:1000F00078C878C1FAD8520701D330C830C101D5C9
:1001000004680C60704700000023002400250026CE
:10011000103A01D378C1FBD8520700D330C100D5C3
:100120000B6070471FB51FBD10B510BD01F0E4FC9A
:100130001146FFF7F7FF00F043FC01F0FCFC03B4AD
:10014000FFF7F2FF03BC00F06AFC000070B5054643
:100150000C46164602E00FCC0FC5103E102EFAD208
:10016000082E02D303CC03C5083E042E07D301CCCE
:1001700001C5361F03E021782970641C6D1C761EB2
:10018000F9D270BD0748804707480047FEE7FEE701
:10019000FEE7FEE7FEE7FEE704480549054A064B91
:1001A00070470000CF010000A9000000F008002007
:1001B000F0100020F00C0020F00C00203648006801
:1001C00070473548406870473448006A704710B53A
:1001D0003348816B334A1161C16B30484160002163
:1001E000016241698907CA0F012191404269D20722
:1001F000D20F9140CCB2416940698904890E002038
:1002000001F0B5F8214601F0B2F82349086010BDAD
:10021000F8B5254F0126214D01280FD00020286276
:1002200004462146104601F0A2F8C0B2012808D8C1
:10023000EE616F6101210A46134619E02E620C46F9
:10024000EFE70021E961FF2101318006800A0843C0
:10025000686168698007C00F86406869C007C00F81
:1002600086406869F2B28004810E68698002830E5C
:100270002046094C51436060584301F078F82060F3
:10028000F8BD30B4064B9C6B064D2C61DB6B034C08
:10029000636030BCBCE7000000000020001000419B
:1002A00080FD030000120041000102003F4A3F4B65
:1002B00001218032984201D1116070473B4B2033BD
:1002C000984201D111627047394A394B80329842C5
:1002D000F2D0374B20339842F4D07047334A334B37
:1002E0000121C9438032984201D1116070472F4BE0
:1002F0002033984201D1116270472D4A2C4B803235
:100300009842F2D02A4B20339842F4D0704781684B
:10031000802291438160704781688022914381608F
:100320000021016020228260816170478268802301
:100330009A4382600A68026082684B689B0113439B
:100340008A6892001A43CB6809695B00134319431A
:10035000EF2211408160704720220129816802D07C
:100360009143816070471143FBE70121C1607047F1
:100370004069C0B2704780688006C00F704700694E
:1003800070474069704781688022114381607047DF
:100390000068704701607047406870478068704728
:1003A000816070478069704781617047001000402C
:1003B0000020004070B51024002101604160DE4A39
:1003C000426142628162426321225206904202D11E
:1003D000DA4BDB4A07E04322120690420CD1D74B9E
:1003E000D74A403340320020602685005E5151518B
:1003F000401CA042F9D370BD11229206904204D154
:10040000CE4BCF4A80338032EDE7CC4BCC4AC03361
:10041000C0320524E7E7F0B521220023102552065B
:10042000904201D1C54A10E043221206904202D107
:10043000C24A403209E011229206904202D1BF4ADC
:10044000803202E0BD4AC0320525012426460F68ED
:100450009E403740B74243D10F79012F0DD04661FE
:100460004E79B6070DD59C001659B608B600165140
:10047000165902273E4316510BE0076937430761BF
:10048000EEE79E009759BF08BF0097519759274341
:1004900097514C79640704D59C00165904273E43B4
:1004A00003E09C0016590427BE4316514C79A4065C
:1004B00004D59C00165920273E4303E09C001659A2
:1004C0002027BE4316514C79640604D59C0016596A
:1004D00040273E4303E09C0016594027BE43165177
:1004E0005B1CAB42B1D3F0BD9349016000210171A7
:1004F0006221417170470246126800200A4200D012
:1005000001207047006880B27047024652680020A0
:100510000A4200D001207047406880B270470A0646
:10052000920D012312189B02D21811600A0A920040
:1005300010185A0080180160704710B50B069B0D0B
:100540000124CA431B18A4021B191A60090A890056
:10055000081861004018026010BD30B50B069B0DF5
:100560001C1801239B02E41823680D0AAD002D1806
:100570000120C0022D182868012A04D08B43236073
:100580008843286030BD0B4323600843F9E741608E
:10059000704742684A4042607047836A0B438362F7
:1005A000012A03D0426A0A4342627047026A0A4340
:1005B00002627047604A8262012901D0426270473C
:1005C00002627047012A03D0426B0A4342637047BC
:1005D000026B0A4302637047574A012901D0426304
:1005E0007047026370475449816370470246926BBB
:1005F00000200A4200D001207047F0B50126504D7E
:10060000002334469C400C4210D0002812D0012810
:1006100013D0022814D04A4C9F0080343C19276C18
:10062000BF08BF002764276C174327645B1C102B8F
:10063000E7DBF0BD9C00641906E09C006419EEE75E
:100640003F4C9F0080343C192768BF08BF002760DB
:10065000276817432760E9E77CB504461E460D4628
:100660006846FFF741FF68460095027169462046DB
:10067000FFF7D1FE21204006844201D1002004E092
:1006800043200006844205D1012032462946FFF767
:10069000B4FF7CBD11208006844201D10220F4E722
:1006A0000320F2E77CB5044616460D466846FFF780
:1006B0001BFF00206946009508712046FFF7ABFE3E
:1006C000206A28432062A06A2843A0623246294655
:1006D0002046FFF777FF21204006844206D1002004
:1006E00001222946FFF789FF072009E04320000681
:1006F000844208D1012002462946FFF77EFF0820E8
:1007000000F013F87CBD11208006844206D102203F
:1007100001222946FFF771FF0920F1E7032001229A
:100720002946FFF76AFF0A20EAE7C106C90E012041
:100730008840044908607047FFFF00000030004116
:100740000020004100E100E0E12149020160602158
:1007500081800021C18003220181120242818181B6
:1007600070477047F8B50446006B0E4640084000DD
:100770002063FFF729FD8D4F0125002842D03D6100
:10078000FFF71CFD7A692946914000F0F0FD07460D
:100790003068000101F08AF90090384601F086F9CE
:1007A000009901F08FF8074601F03CF9009001F044
:1007B0007DF9394601F020FA062101F07BF901F0BC
:1007C00057F800227A4B00F0FFFF01F02DF80146A8
:1007D00000986062A162E06AEE218843B188F288E5
:1007E0001143328902431143E162206B7149B2899E
:1007F00008407189114301432163206B2843206322
:100800000020F8BD02203861786929468140002027
:1008100000F0B7FDBBE710B5C36A10242343C362E1
:100820004907890E5207520F1143416310BDC16A37
:1008300010229143C162704701607047006880B226
:100840007047C16A01221143C16270470246526873
:1008500000200A4200D001207047416070470246E4
:10086000926900200A4200D0012070477047002A98
:1008700003D0826B0A4382637047426C0A4342642E
:1008800070470246126C00200A4200D001207047D7
:10089000426C0A4342647047826C0A438264704728
:1008A000704710B504464448016B02290AD0006B1A
:1008B000032807D0FFF782FC214600F058FD3F498E
:1008C000086110BDFFF77DFCF6E710B5FFF7E9FF03
:1008D0003A4988680322800880001043886000201D
:1008E00010BD36494A68D207FCD1086070473348CA
:1008F000006880B27047314A0146526800200A42BF
:1009000000D0012070472D4A0029916801D0014391
:1009100000E0814391607047284A0029916801D026
:10092000014300E0814391607047244A0146D26848
:1009300000200A4200D0012070472049CA680243C3
:10094000CA607047016082691207FCD4084670478C
:1009500030B50B4605461C78002C03D021462846AE
:10096000FFF7F0FF5B1C002CF5D130BD8169C90693
:10097000FCD40068C0B2704700B50346FFF7B1FF72
:10098000184600BD10B503461C78002C02D0204646
:10099000FFF7A7FF5B1C002CF6D110BD074841688C
:1009A0008907FCD50068C0B27047000040110041C3
:1009B0000000E03FFE3CFFFF0010004100600040EF
:1009C00006220021012000F02BF8012000F053F84E
:1009D000FEE701B507480099016001680029FCD1D4
:1009E00008BD04480168002902D00168491E016061
:1009F000704700000800002010B5C0B2FFF7BCFF30
:100A000010BD10B5FFF7CAFFFFF7B6FF10BD0020FD
:100A1000C043704710B5C0B2FFF7AEFF10BDFEE790
:100A2000F8B50B460400FFD1214E204C7700002B77
:100A300004D0012B04D0022905D103E0214602E0B5
:100A4000314600E03946130001F082F80705070936
:100A50000B0D0F11120022460AE0324608E0154A3B
:100A600006E03A4604E0144A02E0144A00E0144A60
:100A7000FFF707FCF8BD10B50446FFF79FFB7D218B
:100A8000C90000F074FC60430E49401E88420CD837
:100A90000D4948610D480722C3691B021B0A4C041B
:100AA0002343C361002088610A6110BD00127A00EF
:100AB000001BB7000024F4000048E80100512502A3
:100AC000006CDC02FFFFFF0000E000E004ED00E04E
:100AD00010B5FFF7FAFE01210820FFF71DFF4F496F
:100AE000102008604E490A684023120A12021A4375
:100AF0000A604C49086010BD70B500240E460546DA
:100B0000002806D1C01E70BD6D1CFFF735FF641CA8
:100B1000A4B22878002801D0B442F5D3204670BD95
:100B200010B54149C8884A8880188A88C988801ABF
:100B300000F027FC084610BDF8B500260D46074614
:100B400000283FD0002D40D0374CE0886188401805
:100B5000A188401AE18800F014FCA94208DAE08874
:100B600061884018A188401AE18800F00AFC0D460F
:100B7000ADB20095A0886188884214D9E088A18828
:100B8000401A86B2AE420ED22848A1883246411899
:100B9000384600F0ABFBA088E188801900F0E7FB45
:100BA000A180A81B85B22148A1882A464118B819FE
:100BB00000F09CFBA088E188401900F0D8FBA180E0
:100BC0000098F8BD0220C043F8BD0020F8BD10B564
:100BD0000220FFF7AAFE002819D0134CE088A18854
:100BE00040186188401AE188401E00F0CAFB0029C5
:100BF0000ED0FFF77CFE0D4962888854E18860883A
:100C0000401C00F0B4FB61800220FFF796FE10BD8F
:100C1000FFF76DFE01202070F6E7000080E200E0A3
:100C200004E400E000E100E00C00002028000020C7
:100C3000F8B5022802D90220C043F8BD0C230124D4
:100C400000254049002804D0012807D0022814D1EB
:100C50000CE03D4A0A600B760C610EE03A4A203205
:100C6000CA61384A1C321376156106E0374A8A6336
:100C7000344A0D233832137614611C2250430E5827
:100C80004018071D007EC106C90E20468840304925
:100C900008603046FFF70AFBFFF790FA7D21C90094
:100CA00000F065FB3D6131C739460C393046FFF72E
:100CB0003DFB01213046FFF74FFB3046FFF763FB5A
:100CC0000020F8BD10B5204C2046FFF751FB00284E
:100CD00021D02046FFF749FB1E484188491C41802E
:100CE0001D4A1188491C118042881C4B00219A42E0
:100CF00003D341800278521C027002783C2A03D34D
:100D000001704278521C427042783C2A03D34170F1
:100D10004168491C41600C4C20342046FFF728FBF9
:100D2000002802D02046FFF720FB10BD094840688C
:100D30007047084840787047064800787047054873
:100D40004088704728040020001000400020004028
:100D500000E100E01400002024000020E703000070
:100D600010B5022806D81821F84A41438918897D10
:100D7000012902D00220C04310BD00280DD0012857
:100D80000BD111240123A4061A4602212046FFF7A5
:100D900063FC02212046FFF7D0FB002010BD70B598
:100DA000022806D81821E94A41438918897D01297A
:100DB00002D00220C04370BDE54C002815D00128A8
:100DC00013D11125AD060123002202212846FFF789
:100DD00043FC02212846FFF7A2FB02212846FFF729
:100DE0008AFB002800D001202070207870BDF8B563
:100DF0000222D2430E460746022816D81820D349AD
:100E000078434518A87D01280FD1022E0DD8697DA1
:100E10002C1D0020002902D001290CD012E0002E48
:100E200007D0012E05D0022E01D01046F8BD0320B8
:100E30008003A08106E0A0813846FFF7B0FF384666
:100E4000FFF78EFF2E820020F8BD022802D9022073
:100E5000C043704718225043BC4A80184175002097
:100E60007047FFB581B002260198F64302284DD89D
:100E70000398401F042849D20498022846D80A98AB
:100E8000022843D80B98022840D80199AF4800297E
:100E900002D001290BD104E0AE49016002210175A5
:100EA00005E0AD498161A949032218310A7501990C
:100EB0001822514342580F183C1D142500927D57AB
:100EC0002046FFF741FC029878600398052806D079
:100ED000062806D007280ED0082804D10DE00020EF
:100EE00000E02020A0800498002809D0012806D026
:100EF00002280BD10DE04020F4E76020F2E7022049
:100F000020810A98012806D0022806D0304605B074
:100F1000F0BD0620F4E7002000E00820E08000217A
:100F20000198FFF792FF0B990198FFF760FF2146A8
:100F30000098FFF717FC012210210098FFF797FC9B
:100F4000E9060120C90E02468A4084490A60FF2151
:100F5000002D10DA2B071B0F083B9C08804BA400C8
:100F6000E418E369AD07ED0EA9408B434021A94089
:100F70000B43E3610CE0AC087A4BA400E41823684F
:100F8000AD07ED0EA9408B434021A9400B432360E0
:100F900075490A60B8750020B9E730B518236B4C65
:100FA00043431C190225231DED4302280ED8A07DC2
:100FB00001280BD1002904D0002A09D00320000207
:100FC00003E0002A02D0012040025881284630BDAB
:100FD000FF200130F9E7F7B50D460024E11E022895
:100FE00009D818220746594E5743B819807D012861
:100FF00001D1002D07D10846FEBDF0596D1CFFF749
:10100000A1FC641CA4B22978002902D00298844271
:10101000F3D32046FEBD002110B5CA1E02280AD80F
:1010200018234A4C43431B199B7D012B03D10028F5
:101030000CD0012801D0104610BD4549C8884A8807
:1010400080188A88C988801A00F09BF9084610BD6C
:10105000F7B50027F91E15463E4602280FD818227C
:101060003A4B4243D218927D012A08D1019A002AB4
:1010700005D0002D05D0002842D0012803D0084615
:10108000FEBD0020FEBD324CE08861884018A1887A
:10109000401AE18800F075F9A94208DAE088618811
:1010A0004018A188401AE18800F06BF90D46ADB2F6
:1010B000A0882F466188884214D9E088A188401A08
:1010C00086B2AE420ED22948A18832464118019814
:1010D00000F00CF9A088E188801900F048F9A1809F
:1010E000A81B85B22148A1882A4641180198801979
:1010F00000F0FCF8A088E188401900F038F9A180E0
:101100003846FEBD022806D81821104A41438918E6
:10111000897D012902D00220C0437047002805D0F4
:10112000012803D10A4900204880888000207047A8
:1011300010B5084810210446FFF7A3FB002803D090
:1011400010212046FFF7A4FB10BD0000600800201E
:101150001C00002000C0004000D0004080E200E001
:1011600000ED00E000E400E000E100E060040020A9
:1011700070B54248424E05461021FFF782FB002819
:1011800032D0404CE088A18840186188401AE1883C
:10119000401E00F0F6F8002903D0B089022808D0DC
:1011A00012E02846FFF74AFB364901200A31487011
:1011B00016E0E08861884018A188401AE18800F0B4
:1011C000E0F8314881420BDC2846FFF737FB2F4916
:1011D00062888854E1886088401C00F0C8F861800B
:1011E00010212846FFF754FB70BD264900220A81D2
:1011F0000A898242FCD97047022110B5C9430228EE
:101200000BD81F4B182242431C3BD218927D012A57
:1012100003D11C4A1278012A01D0084694E700281D
:1012200009D0012807D1112002218006FFF777F9A4
:101230000120FFF7DAFF002086E7022110B5C9433D
:1012400002280BD80E4B182242431C3BD218927D29
:10125000012A03D10B4A1278012A01D0084673E70C
:10126000002809D0012807D1112002218006FFF7AC
:1012700064F90120FFF7B9FF002065E700D00040C6
:101280007C0800201C0000209A030000600400205D
:10129000704770477047704710B5FFF7A2FB10BD4D
:1012A0007047704710B5FFF743FF10BD10B5FFF74B
:1012B0005FFF10BD10B5FFF78AFC10BD7047704787
:1012C0007047704770477047704710B5FFF7FAFCDA
:1012D00010BD704770477047704770477047704740
:1012E000704770477047704770477047F8B5042AD9
:1012F0002CD3830712D00B78491C0370401C521E5C
:1013000083070BD00B78491C0370401C521E8307C7
:1013100004D00B78491C0370401C521E8B079B0F96
:1013200005D0C91ADF002023DE1B08C90AE0FEF73A
:101330000DFFF8BD1D4608C9FD401C46B4402C43B6
:1013400010C0121F042AF5D2F308C91A521EF0D495
:101350000B78491C0370401C521EEAD40B78491CC0
:101360000370401C012AE4D409780170F8BD002202
:1013700003098B422CD3030A8B4211D300239C46D2
:101380004EE003460B433CD4002243088B4231D34A
:1013900003098B421CD3030A8B4201D394463FE0DE
:1013A000C3098B4201D3CB01C01A524183098B423E
:1013B00001D38B01C01A524143098B4201D34B0127
:1013C000C01A524103098B4201D30B01C01A52418A
:1013D000C3088B4201D3CB00C01A524183088B4211
:1013E00001D38B00C01A524143088B4201D34B00FA
:1013F000C01A5241411A00D201465241104670476C
:101400005DE0CA0F00D04942031000D34042534070
:1014100000229C4603098B422DD3030A8B4212D330
:10142000FC22890112BA030A8B420CD38901921162
:101430008B4208D3890192118B4204D389013AD09F
:10144000921100E08909C3098B4201D3CB01C01A74
:10145000524183098B4201D38B01C01A5241430987
:101460008B4201D34B01C01A524103098B4201D375
:101470000B01C01A5241C3088B4201D3CB00C01AE2
:10148000524183088B4201D38B00C01A5241D9D2FA
:1014900043088B4201D34B00C01A5241411A00D27B
:1014A0000146634652415B10104601D34042002B77
:1014B00000D54942704763465B1000D3404201B5F6
:1014C0000020C046C04602BD70477047704700000C
:1014D000F0B50C46871A9C410D46861A9D4103D2F1
:1014E000C01BA141D21963410D0D1F0DC94EEC1B4C
:1014F000AE435CD07F057F0D0026002F51D02D0517
:10150000AC46A943DD020123ED0A1B051D43202340
:101510001B1B24D41746E740381871412F46E7407B
:10152000CC199D402818314661410C0D27D16144EA
:101530009A4013D50023401C594152000ED1400857
:10154000400001224B005205D34207D3052040073B
:10155000C14201D5B04900E0B0493046F0BD6B0052
:10156000002A00D001229A181F23203C1B1B01D502
:10157000002302E0E540281871410C0DD7D001246A
:1015800024050919C407CD0740084908E40F28437A
:101590006144002CD5D00024401C61419A40D0D138
:1015A000CDE76A05520DD9D1C90FC907D5E79C4DC2
:1015B0004E00002801D0012400E0002434195F000F
:1015C000002A01D0012600E00026BE19954FAC424A
:1015D0000CD8AE420AD8B44206D001256D05EC42C3
:1015E000BCD010461946F0BD9942FCD000203946C7
:1015F000F0BDF0B51FB40C460F46811A9F41254639
:10160000861A9D4106D20125ED076F40401ABC4164
:1016100052187B41210D1E0D8D1BAC467D4D8D4317
:101620007ED075056D0D7CD00D05AE46AC431B0319
:101630001B0B794D52429D41202366469B1B14D3C0
:101640001746F740381800260090744160462F4630
:101650000741E41900989D402818664116D4714648
:1016600071189A4025D5012320E093182A466A4133
:101670005200002B00D0521C1E23203E9B1B002B2F
:1016800061DD3541EE1728186641E8D5001876412E
:101690005B1C9A4000D3401C4B05F3181524E34013
:1016A00010D3002B52D071467118D30FC01802D33B
:1016B000491C05B0F0BD0123DB079A42F9D140086F
:1016C0004000F6E701225205B21801D1002853D09C
:1016D0000123CC0ADB029943891E002A08D1020C9F
:1016E00003D0020C0004103902E002460020203929
:1016F0000023550B05D112020823550B01D15201CD
:101700000D23550C01D112011B1DD50C01D19200E6
:101710009B1C150D01D152005B1C2025EE1A01E027
:101720002CE022E00546F54015439840CA1AE1072F
:1017300069181305C918002ABBDA032040070818E6
:10174000C10FC9070FE071466118B2E7F107400801
:101750000843711071444A000CD001235B059A4282
:10176000A7D2C90FC9070020A3E74905490D26D113
:10177000002001E00028F4D100219AE7284D6600FE
:10178000002801D0012100E0002171185F00002A2B
:1017900001D0012600E00026BE19224FA94210D830
:1017A000AE420ED8B14208D001256D05E94206D0FF
:1017B0001946A802414010467BE79C4201D02146D1
:1017C00077E70020394674E710B50C465C4005D534
:1017D0000124E4076340FFF70CFF10BDFFF778FE1C
:1017E00010BD30B40C465C4004D50124E4076340CE
:1017F00030BC6DE630BCFCE670B50124E407614006
:101800000D465D4002D4FFF763FE70BD6340FFF7F5
:10181000F0FE70BDFF0700000000F0FF0000F07F49
:101820000000E0FF0000F87F0346CA02400D10B53B
:1018300010430A1504D00124E4072043002A05DBE5
:101840000A4CA21A04D4D040FF2A00DD002010BDAB
:101850004A00002B01D0012000E0002010180122D6
:101860005205D042F2D8C817C04310BD1E04000074
:101870000121C9050123411842001B06D3185B0E44
:101880000AD0C1100722D206891840075242D1421D
:1018900001D5520089187047090208D50146002A6F
:1018A00003D0C10FC907002070471046704742029D
:1018B00002D0002002497047072109050143F4E7DF
:1018C0000000F87FF0B5FF252D04C609C209FF27E7
:1018D00004462E400137CB093E4348402A402B4066
:1018E0000746002A6BD0002B69D0AA4267D0AB42D2
:1018F00065D0002800DA32460125ED0529432C4346
:1019000009022002090AD21A4B0C7F24E31A434C25
:10191000000A7C44E35C7D242404121914145B0047
:10192000A218884201D3521C00E0400049420C46F4
:101930005C4324115C43DB016415E318040A5C4337
:10194000C502200D0C4644436419250A5D43230358
:10195000EC0C0D46654300030019EB184C42A34202
:1019600001D35B18401CD4052018002B07D05B0066
:10197000C91804D3401C002901D1400840003F2170
:1019800089048A4209D3002A08DC1106090F04D011
:10199000032149074018C00FC007F0BD01224100D4
:1019A000120689187F2252069142F6D20521490774
:1019B000C84201D59010F0BDFF20C005F0BD002F3A
:1019C00000DA32461648AA4207D2AB4205D21902C3
:1019D000090E17D0F80FC007F0BDFF2563002D06D4
:1019E000AB42F9D84900A942F6D8AB4201D1A9428D
:1019F000F2D0A94201D1002101E061004908D005DF
:101A00000843F0BD1102090EFBD0FF200243D005B0
:101A1000F0BD0A460146104654E70000CA03000024
:101A20000000C07F0102C21504D00123DB07194367
:101A3000002A0ADB9E239A1A02D40846D040704737
:101A4000FF2241001206914201D900207047C017C1
:101A5000C04370471F22030C02D10F2200041CD088
:101A6000030E01D10002083A030F01D10001121F39
:101A7000830F01D18000921E002801DB4000521E1E
:101A8000D2055118021251181922904004D3491C52
:101A9000002801D14908490008467047C10FC9070D
:101AA00000D04042012292071143D3E70121890768
:101AB000D0E7000010B5FF22C30D134009D05A40F3
:101AC00007D0914205DA5C42A14202DDC90508183F
:101AD00010BDC40FE407002B06D0002A06D0002951
:101AE00002DBFF20C0050443204610BD4102FCD0AC
:101AF000004810BD0000C07F754600F025F8AE46D6
:101B0000050069465346C008C000854618B020B598
:101B1000FEF742FB60BC00274908B6460026C0C558
:101B2000C0C5C0C5C0C5C0C5C0C5C0C5C0C5403D95
:101B300049008D46704710B50446C046C046204651
:101B4000FEF7FDFA10BD0000004870479008002025
:101B500030B47446641E2578641CAB4200D21D4626
:101B6000635D5B00E31830BC1847000070B50125C9
:101B70000400ED074C4020D4441A01D2001B09197F
:101B8000C60D4B00F2B2FF2A29D01B0E2CD000024A
:101B90000C02D31A2C43DC402843051910D2280A22
:101BA00002D3401C6D0611D0761EF6058019FF2A5F
:101BB00000DA70BDC00DC00570BD694000F02EF8A0
:101BC00001200543C541521C761CE8E764089C408F
:101BD000C90161408900E7D10124A043E4E71B0E5D
:101BE000440200D0034870BD002AFCD1C00FC007DA
:101BF00070BD00BF0000C07F70B50125ED076840D3
:101C000004004C4002D5694000F008F8FFF7B4FF2B
:101C100070B501250400ED074C4022D4441A02D2CD
:101C20006C40001B0919C60D4B00F2B2FF2A4BD0C5
:101C30001B0E50D000020C02D31A2C43DC40A843E8
:101C4000051B05D5AD0019D36D08761E521E37D081
:101C5000F605280A01D2801970BD70416D0603D0C7
:101C600070BD6940FFF788FF9C4009026140490050
:101C700001D0401E70BD0124A04370BD6D081DD071
:101C800001202B0C01D12D0410302B0E01D12D027F
:101C900008302B0F01D12D01001DAB0F01D1AD007C
:101CA000801CEB0F01D16D00401C6D00361A121A1A
:101CB000680AF5054019012A02DB70BD002070BDDD
:101CC000C036300AC00770BD1B0E440201D1FF2B85
:101CD00000D1024870BD002AF0D070BD0000C07F66
:101CE0008182838485868788898B8C8D8E8F919263
:101CF00093959697999A9C9D9FA0A2A3A5A7A8AA01
:101D0000ACAEB0B2B3B5B7B9BCBEC0C2C5C7C9CC22
:101D1000CED1D4D7D9DCDFE2E6E9ECF0F3F7FAFE76
:101D2000401D00000000002028000000EC00000022
:101D3000681D000028000020C810000008010000F5
:101D40000000000000000000000000000000000093
:101D5000000000040000000000000000000000007F
:081D6000000000040000000077
:04000005000000A94E
:00000001FF
