:020000040000FA
:10000000B01400202D0F0000350F0000370F000046
:1000100000000000000000000000000000000000E0
:10002000000000000000000000000000390F000088
:1000300000000000000000003B0F00003D0F00002A
:100040003F0F00003F0F00003F0F00003F0F000078
:100050003F0F00003F0F00003F0F00003F0F000068
:100060003F0F00003F0F00003F0F00003F0F000058
:100070003F0F00003F0F00003F0F00003F0F000048
:100080003F0F00003F0F00003F0F00003F0F000038
:100090003F0F00003F0F00003F0F00003F0F000028
:1000A0003F0F00003F0F000000F002F800F03EF8A4
:1000B0000CA030C8083824182D18A246671EAB467D
:1000C00054465D46AC4201D100F030F87E460F3E0A
:1000D0000FCCB6460126334200D0FB1AA246AB46EF
:1000E000334318474019000060190000103A02D34A
:1000F00078C878C1FAD8520701D330C830C101D5C9
:1001000004680C60704700000023002400250026CE
:10011000103A01D378C1FBD8520700D330C100D5C3
:100120000B6070471FB51FBD10B510BD01F074FB0B
:100130001146FFF7F7FF00F025F801F08CFB03B440
:10014000FFF7F2FF03BC00F078F8000070B5054639
:100150000C46164602E00FCC0FC5103E102EFAD208
:10016000082E02D303CC03C5083E042E07D301CCCE
:1001700001C5361F03E021782970641C6D1C761EB2
:10018000F9D270BD00F01BF8012000F0EBFE00F08A
:10019000FCFE012000F003FF00F019FFF9E701B5B4
:1001A00016480099016001680029FCD108BD134878
:1001B0000168002902D00168491E0160704710B52E
:1001C0000F4A1049012000F09BFE00F035FE7D2112
:1001D000C90000F05DFF0C49401E88420CD80B4955
:1001E00048610B480722C3691B021B0A4C042343C6
:1001F000C361002088610A6110BD0000000000207A
:10020000006CDC0200127A00FFFFFF0000E000E05B
:1002100004ED00E010B5C0B200F0E9FD10BD10B56E
:1002200000F0F7FD00F0E3FD10BD0020C043704773
:1002300010B5C0B200F0DBFD10BDFEE710B500F058
:100240007FFD0121082000F0A2FD4F491020086029
:100250004E490A684023120A12021A430A604C49A6
:10026000086010BD70B500240E460546002806D172
:10027000C01E70BD6D1C00F0BAFD641CA4B22878CD
:10028000002801D0B442F5D3204670BD10B54149D5
:1002900088880A8880184A888988801A00F002FFB6
:1002A000084610BDF8B500260D46074600283FD089
:1002B000002D40D0374CA088218840186188401A12
:1002C000A18800F0EFFEA94208DAA0882188401832
:1002D0006188401AA18800F0E5FE0D46ADB2009598
:1002E00060882188884214D9A0886188401A86B223
:1002F000AE420ED22848618832464118384600F096
:1003000086FE6088A188801900F0C2FE6180A81B6B
:1003100085B2214861882A464118B81900F077FE55
:100320006088A188401900F0B3FE61800098F8BD94
:100330000220C043F8BD0020F8BD10B5022000F037
:100340002FFD002819D0134CA088618840182188FF
:10035000401AA188401E00F0A5FE00290ED000F032
:1003600001FD0D4922888854A1882088401C00F096
:100370008FFE2180022000F01BFD10BD00F0F2FC7A
:10038000064901200870F5E780E200E004E400E09F
:1003900000E100E0040000201C0000200B00002011
:1003A00010B5022806D81821F74A41438918897DDB
:1003B000012902D00220C04310BD00280DD0012821
:1003C0000BD111240123A4061A460221204600F075
:1003D00097FB0221204600F01AFB002010BD70B5EB
:1003E000022806D81821E84A41438918897D012945
:1003F00002D00220C04370BDE44C002815D0012873
:1004000013D11125AD06012300220221284600F058
:1004100077FB0221284600F0ECFA0221284600F082
:10042000D4FA002800D001202070207870BDF8B5E3
:1004300007460E46182039464143D3480D1802217D
:100440002C1DC943022F18D8A87D012815D1022ED2
:1004500013D86A7D0020002A09D0A0813846FFF712
:10046000BEFF3846FFF79CFF2E820020F8BD002E0D
:1004700007D0012E05D0022E01D00846F8BD03207A
:100480008003A081F0E7022802D90220C043704710
:1004900018225043BC4A8018417500207047FFB5B0
:1004A00081B002260198F64302284DD80398401FD8
:1004B000042849D20498022846D80A98022843D82A
:1004C0000B98022840D80199AF48002902D0012991
:1004D0000BD104E0AE4901600221017505E0AD4990
:1004E0008161A949032218310A75019918225143E3
:1004F00042580F183C1D142500927D57204600F0ED
:1005000061FB029878600398052806D0062806D07B
:1005100007280ED0082804D10DE0002000E020209C
:10052000A0800498002809D0012806D002280BD109
:100530000DE04020F4E76020F2E7022020810A98D5
:10054000012806D0022806D0304605B0F0BD0620AE
:10055000F4E7002000E00820E08000210198FFF788
:1005600092FF0B990198FFF762FF2146009800F077
:1005700037FB01221021009800F0B8FBE9060120AA
:10058000C90E02468A4084490A60FF21002D10DA14
:100590002B071B0F083B9C08804BA400E418E36961
:1005A000AD07ED0EA9408B434021A9400B43E36109
:1005B0000CE0AC087A4BA400E4182368AD07ED0EFC
:1005C000A9408B434021A9400B43236075490A6031
:1005D000B8750020B9E730B518236B4C43431C199C
:1005E0000225231DED4302280ED8A07D01280BD142
:1005F000002904D0002A09D00320000203E0002AC9
:1006000002D0012040025881284630BDFF20013031
:10061000F9E7F7B50D460024E11E022809D8182293
:100620000746594E5743B819807D012801D1002D46
:1006300007D10846FEBDF0596D1C00F0BEFB641CDE
:10064000A4B22978002902D002988442F3D320462C
:10065000FEBD022210B5D24302280AD818234A4C04
:1006600043431B199B7D012B03D100280CD001288B
:1006700001D0104610BD4549C8884A8880188A882C
:10068000C988801A00F00EFD084610BDF7B5002796
:10069000F91E15463E4602280FD818223A4B42430F
:1006A000D218927D012A08D1019A002A05D0002D86
:1006B00005D0002842D0012803D00846FEBD002006
:1006C000FEBD324CE08861884018A188401AE1885C
:1006D00000F0E8FCA94208DAE08861884018A188A7
:1006E000401AE18800F0DEFC0D46ADB2A0882F462E
:1006F0006188884214D9E088A188401A86B2AE4247
:100700000ED22948A18832464118019800F07FFC9A
:10071000A088E188801900F0BBFCA180A81B85B2ED
:100720002148A1882A4641180198801900F06FFCE1
:10073000A088E188401900F0ABFCA1803846FEBDDE
:10074000022806D81821104A41438918897D0129B9
:1007500002D00220C0437047002805D0012803D1F1
:100760000A490020488088800020704710B508485A
:100770001021044600F0C4FA002803D010212046BE
:1007800000F0C5FA10BD00001C0800200A0000207F
:1007900000C0004000D0004080E200E000ED00E03A
:1007A00000E400E000E100E01C04002070B53B48DC
:1007B0003B4E0546102100F0A3FA00281ED0394C0C
:1007C000E088A18840186188401AE188401E00F046
:1007D00069FC002913D0B08902280BD0284600F00C
:1007E0006DFA314962888854E1886088401C00F0C5
:1007F0004FFC61801021284600F089FA70BD284620
:1008000000F05CFA01206070F4E7264900220A81BA
:100810000A898242FCD97047022110B5C9430228D7
:100820000BD81F4B182242431B1FD218927D012A5E
:1008300003D11C4A1278012A01D00846A2E70028F9
:1008400009D0012807D111200221800600F0D1F83B
:100850000120FFF7DAFF002094E7022110B5C94319
:1008600002280BD80E4B182242431B1FD218927D30
:10087000012A03D10B4A1278012A01D0084681E7E8
:10088000002809D0012807D111200221800600F09C
:10089000BEF80120FFF7B9FF002073E700D0004049
:1008A000200800200A0000201C04002070B510243D
:1008B000002101604160BF4A42614262816242633D
:1008C00021225206904202D1BB4BBC4A0CE043228B
:1008D0001206904204D1B84BB84A4033403203E08C
:1008E000B54BB64A803380320020602685005E51C9
:1008F0005151401CA042F9D370BDF0B52122002314
:1009000010265206904201D1AB4A08E0432212065B
:10091000904202D1A84A403201E0A74A8032012425
:1009200025460F689D402F40AF4243D10F79012FDC
:100930000DD045614D79AD070DD59C001559AD0819
:10094000AD001551155902273D4315510BE00769BC
:100950002F430761EEE79D005759BF08BF0057516D
:100960005759274357514C79640704D59C001559B2
:1009700004273D4303E09C0015590427BD4315514E
:100980004C79A40604D59C00155920273D4303E06B
:100990009C0015592027BD4315514C79640604D598
:1009A0009C00155940273D4303E09C001559402702
:1009B000BD4315515B1CB342B1D3F0BD7D4901600D
:1009C00000210171622141717047024612680020C6
:1009D0000A4200D001207047006880B2704702468A
:1009E000526800200A4200D001207047406880B25F
:1009F00070470A06920D012312189B02D21811604B
:100A00000A0A920010185A0080180160704710B549
:100A10000B069B0D0124CA431B18A4021B191A6064
:100A2000090A8900081861004018026010BD10B55D
:100A30000B069B0D01241B18A4021B191A60090A3E
:100A40008900081861004018026010BD41607047BD
:100A5000836A0B438362012A03D0426A0A434262DB
:100A60007047026A0A4302627047524A8262012951
:100A700001D04262704702627047012A03D0426B84
:100A80000A4342637047026B0A4302637047494A54
:100A9000012901D042637047026370474549816371
:100AA00070470246926B00200A4200D00120704736
:100AB000F0B50126414D002334469C400C420ED037
:100AC000002810D0012811D03C4C9F0080343C19E4
:100AD0002768BF08BF0027602768174327605B1C93
:100AE000102BE9DBF0BD9C006419F1E79C00641950
:100AF000276CBF08BF002764276C17432764EEE705
:100B00007CB504461E460D466846FFF757FF68460B
:100B10000095027169462046FFF7EFFE212040064E
:100B2000844201D1002006E043200006844201D126
:100B3000012000E0022032462946FFF7B9FF7CBDC4
:100B40007CB5044616460D466846FFF737FF002081
:100B50006946009508712046FFF7CFFE206A2843BA
:100B60002062A06A2843A062324629462046FFF749
:100B700084FF21204006124E844206D1002001222B
:100B80002946FFF795FF802012E0432000068442AB
:100B900007D1012002462946FFF78AFFFF200130D6
:100BA00006E0022001222946FFF782FF01204002D1
:100BB00030607CBDFFFF000000300041002000419C
:100BC00000E100E0E1214902016060218180002113
:100BD000C1800322018112024281818170477047E6
:100BE000F8B50446006B0E4640084000206300F054
:100BF00029F98B4F0125002846D03D6100F01CF9F2
:100C00007A692946914000F043FA074630680001AE
:100C100000F0DCFD0090384600F0D8FD009900F0AF
:100C2000E1FC074600F08EFD009000F0CFFD394654
:100C300000F064FE062100F0CDFD00F0A9FC0022CA
:100C4000784B00F051FC00F07FFC01460098606298
:100C5000A162E06AEE218843B188F28811433289AB
:100C60000243E06A11430843E062206B6E49B28997
:100C70000840718911430143206B08432063206BB6
:100C8000284320630020F8BD022038617869294696
:100C900081406648B7E710B5C36A10242343C36296
:100CA0004907890E5207520F1143416310BDC16AB3
:100CB00010229143C162704701607047006880B2A2
:100CC0007047C16A01221143C162704702465268EF
:100CD00000200A4200D00120704741607047024660
:100CE000926900200A4200D001207047002A03D0F8
:100CF000826B0A4382637047426C0A4342647047C6
:100D00000246126C00200A4200D001207047426C5B
:100D10000A4342647047704710B504464448016B6B
:100D200002290AD0006B032807D000F085F821467D
:100D300000F0AEF93F49086110BD00F080F8F6E719
:100D400010B5FFF7E9FF3B4988680322800880005F
:100D500010438860002010BD36494A68D207FCD194
:100D6000086070473348006880B27047314A0146D6
:100D7000526800200A4200D0012070472D4A002905
:100D8000916801D0014300E0814391607047294A96
:100D90000029916801D0014300E0814391607047D0
:100DA000244A0146D26800200A4200D00120704740
:100DB0002049CA680243CA6070470160826912070D
:100DC000FCD40846704730B50B4605461C78002C0D
:100DD00003D021462846FFF7F0FF5B1C002CF5D11D
:100DE00030BD8169C906FCD40068C0B2704700B547
:100DF0000346FFF7B1FF184600BD10B503461C7847
:100E0000002C02D02046FFF7A7FF5B1C002CF6D178
:100E100010BD084841688907FCD50068C0B270471A
:100E2000401100410000E03FFE3CFFFF00127A004D
:100E300000100041006000403648006870473548A7
:100E4000406870473448006A704710B53348816B7A
:100E5000334A1161C16B3048416000210162416930
:100E60008907CA0F012191404269D207D20F9140F0
:100E7000CAB2416940698904890E51438002294AF6
:100E8000800E504300F004F92249086010BDF8B507
:100E9000254F0126204D01280FD000202862214C2B
:100EA0001046214600F0F4F8C0B2012808D8EE61DF
:100EB0006F6101210A46134619E02E620C46EFE7E6
:100EC0000021E961FF2101318006800A0843686141
:100ED00068698007C00F86406869C007C00F8640F8
:100EE0006869F2B28004810E68698002830E204630
:100EF000084C51436060584300F0CAF82060F8BDC8
:100F000030B4064B9C6B064D2C61DB6B024C63606E
:100F100030BCBCE7140000200010004180FD03003D
:100F20000012004100127A000001020007488047C9
:100F300007480047FEE7FEE7FEE7FEE7FEE7FEE7BD
:100F400004480549054A064B704700004B0E000057
:100F5000A9000000B0080020B0140020B00C002050
:100F6000B00C00201CB50021044601200B46019165
:100F70000090E121082249022046FFF790FA112251
:100F80001DA12046FFF745FB1CBD10B5E120400226
:100F9000FFF754F9112118A0FFF764F910BD10B53F
:100FA000C0B00446FFF755FB00280EDDFF2800DD2A
:100FB000FF2082B269462046FFF768FB002804DD67
:100FC00082B269462046FFF724FB40B010BD00B551
:100FD000C1B0FFF75BF900280CDDFF2800DDFF2022
:100FE00081B26846FFF75EF9002803DD81B26846EA
:100FF000FFF738F941B000BD48656C6C6F2C205785
:10100000495A6E6574210D0A000000007047F8B55A
:10101000042A2CD3830712D00B78491C0370401C80
:10102000521E83070BD00B78491C0370401C521EC4
:10103000830704D00B78491C0370401C521E8B0799
:101040009B0F05D0C91ADF002023DE1B08C90AE068
:10105000FFF77CF8F8BD1D4608C9FD401C46B440AA
:101060002C4310C0121F042AF5D2F308C91A521ECD
:10107000F0D40B78491C0370401C521EEAD40B7844
:10108000491C0370401C012AE4D409780170F8BDA2
:10109000002203098B422CD3030A8B4211D3002375
:1010A0009C464EE003460B433CD4002243088B424F
:1010B00031D303098B421CD3030A8B4201D39446DC
:1010C0003FE0C3098B4201D3CB01C01A52418309CF
:1010D0008B4201D38B01C01A524143098B4201D389
:1010E0004B01C01A524103098B4201D30B01C01AB4
:1010F0005241C3088B4201D3CB00C01A524183082E
:101100008B4201D38B00C01A524143088B4201D35A
:101110004B00C01A5241411A00D2014652411046BA
:1011200070475DE0CA0F00D04942031000D340422F
:10113000534000229C4603098B422DD3030A8B4265
:1011400012D3FC22890112BA030A8B420CD3890103
:1011500092118B4208D3890192118B4204D38901E9
:101160003AD0921100E08909C3098B4201D3CB0127
:10117000C01A524183098B4201D38B01C01A5241DC
:1011800043098B4201D34B01C01A524103098B42E0
:1011900001D30B01C01A5241C3088B4201D3CB00CB
:1011A000C01A524183088B4201D38B00C01A5241AE
:1011B000D9D243088B4201D34B00C01A5241411A85
:1011C00000D20146634652415B10104601D34042B3
:1011D000002B00D54942704763465B1000D3404264
:1011E00001B50020C046C04602BD70477047704739
:1011F000F0B50C46871A9C410D46861A9D4103D2D4
:10120000C01BA141D21963410D0D1F0DC94EEC1B2E
:10121000AE435CD07F057F0D0026002F51D02D05F9
:10122000AC46A943DD020123ED0A1B051D43202323
:101230001B1B24D41746E740381871412F46E7405E
:10124000CC199D402818314661410C0D27D16144CD
:101250009A4013D50023401C594152000ED140083A
:10126000400001224B005205D34207D3052040071E
:10127000C14201D5B04900E0B0493046F0BD6B0035
:10128000002A00D001229A181F23203C1B1B01D5E5
:10129000002302E0E540281871410C0DD7D001244D
:1012A00024050919C407CD0740084908E40F28435D
:1012B0006144002CD5D00024401C61419A40D0D11B
:1012C000CDE76A05520DD9D1C90FC907D5E79C4DA5
:1012D0004E00002801D0012400E0002434195F00F2
:1012E000002A01D0012600E00026BE19954FAC422D
:1012F0000CD8AE420AD8B44206D001256D05EC42A6
:10130000BCD010461946F0BD9942FCD000203946A9
:10131000F0BDF0B51FB40C460F46811A9F4125461B
:10132000861A9D4106D20125ED076F40401ABC4147
:1013300052187B41210D1E0D8D1BAC467D4D8D43FA
:101340007ED075056D0D7CD00D05AE46AC431B03FC
:101350001B0B794D52429D41202366469B1B14D3A3
:101360001746F740381800260090744160462F4613
:101370000741E41900989D402818664116D471462B
:1013800071189A4025D5012320E093182A466A4116
:101390005200002B00D0521C1E23203E9B1B002B12
:1013A00061DD3541EE1728186641E8D50018764111
:1013B0005B1C9A4000D3401C4B05F3181524E340F6
:1013C00010D3002B52D071467118D30FC01802D31E
:1013D000491C05B0F0BD0123DB079A42F9D1400852
:1013E0004000F6E701225205B21801D1002853D07F
:1013F0000123CC0ADB029943891E002A08D1020C82
:1014000003D0020C0004103902E00246002020390B
:101410000023550B05D112020823550B01D15201AF
:101420000D23550C01D112011B1DD50C01D19200C9
:101430009B1C150D01D152005B1C2025EE1A01E00A
:101440002CE022E00546F54015439840CA1AE10712
:1014500069181305C918002ABBDA032040070818C9
:10146000C10FC9070FE071466118B2E7F1074008E4
:101470000843711071444A000CD001235B059A4265
:10148000A7D2C90FC9070020A3E74905490D26D1F6
:10149000002001E00028F4D100219AE7284D6600E1
:1014A000002801D0012100E0002171185F00002A0E
:1014B00001D0012600E00026BE19224FA94210D813
:1014C000AE420ED8B14208D001256D05E94206D0E2
:1014D0001946A802414010467BE79C4201D02146B4
:1014E00077E70020394674E710B50C465C4005D517
:1014F0000124E4076340FFF70CFF10BDFFF778FEFF
:1015000010BD30B40C465C4004D50124E4076340B0
:1015100030BC6DE630BCFCE670B50124E4076140E8
:101520000D465D4002D4FFF763FE70BD6340FFF7D8
:10153000F0FE70BDFF0700000000F0FF0000F07F2C
:101540000000E0FF0000F87F0346CA02400D10B51E
:1015500010430A1504D00124E4072043002A05DBC8
:101560000A4CA21A04D4D040FF2A00DD002010BD8E
:101570004A00002B01D0012000E0002010180122B9
:101580005205D042F2D8C817C04310BD1E04000057
:101590000121C9050123411842001B06D3185B0E27
:1015A0000AD0C1100722D206891840075242D14200
:1015B00001D5520089187047090208D50146002A52
:1015C00003D0C10FC9070020704710467047420280
:1015D00002D0002002497047072109050143F4E7C2
:1015E0000000F87FF0B5FF252D04C609C209FF27CA
:1015F00004462E400137CB093E4348402A402B4049
:101600000746002A6BD0002B69D0AA4267D0AB42B4
:1016100065D0002800DA32460125ED0529432C4328
:1016200009022002090AD21A4B0C7F24E31A434C08
:10163000000A7C44E35C7D242404121914145B002A
:10164000A218884201D3521C00E0400049420C46D7
:101650005C4324115C43DB016415E318040A5C431A
:10166000C502200D0C4644436419250A5D4323033B
:10167000EC0C0D46654300030019EB184C42A342E5
:1016800001D35B18401CD4052018002B07D05B0049
:10169000C91804D3401C002901D1400840003F2153
:1016A00089048A4209D3002A08DC1106090F04D0F4
:1016B000032149074018C00FC007F0BD01224100B7
:1016C000120689187F2252069142F6D20521490757
:1016D000C84201D59010F0BDFF20C005F0BD002F1D
:1016E00000DA32461648AA4207D2AB4205D21902A6
:1016F000090E17D0F80FC007F0BDFF2563002D06B7
:10170000AB42F9D84900A942F6D8AB4201D1A9426F
:10171000F2D0A94201D1002101E061004908D005C1
:101720000843F0BD1102090EFBD0FF200243D00593
:10173000F0BD0A460146104654E70000AE03000023
:101740000000C07F0102C21504D00123DB0719434A
:10175000002A0ADB9E239A1A02D40846D04070471A
:10176000FF2241001206914201D900207047C017A4
:10177000C04370471F22030C02D10F2200041CD06B
:10178000030E01D10002083A030F01D10001121F1C
:10179000830F01D18000921E002801DB4000521E01
:1017A000D2055118021251181922904004D3491C35
:1017B000002801D14908490008467047C10FC907F0
:1017C00000D04042012292071143D3E7012189074B
:1017D000D0E7000010B5FF22C30D134009D05A40D6
:1017E00007D0914205DA5C42A14202DDC905081822
:1017F00010BDC40FE407002B06D0002A06D0002934
:1018000002DBFF20C0050443204610BD4102FCD08E
:10181000004810BD0000C07F754600F025F8AE46B8
:10182000050069465346C008C000854618B020B57B
:10183000FFF786FB60BC00274908B6460026C0C5F6
:10184000C0C5C0C5C0C5C0C5C0C5C0C5C0C5403D78
:1018500049008D46704710B50446C046C046204634
:10186000FEF76DFC10BD0000004870474C080020DA
:1018700070B501250400ED074C4020D4441A01D274
:10188000001B0919C60D4B00F2B2FF2A29D01B0E0E
:101890002CD000020C02D31A2C43DC40284305193B
:1018A00010D2280A02D3401C6D0611D0761EF60510
:1018B0008019FF2A00DA70BDC00DC00570BD6940F7
:1018C00000F02EF801200543C541521C761CE8E7C4
:1018D00064089C40C90161408900E7D10124A0430C
:1018E000E4E71B0E440200D0034870BD002AFCD17F
:1018F000C00FC00770BD00BF0000C07F70B50125DC
:10190000ED07684004004C4002D5694000F008F83B
:10191000FFF7B4FF70B501250400ED074C4022D459
:10192000441A02D26C40001B0919C60D4B00F2B2DA
:10193000FF2A4BD01B0E50D000020C02D31A2C43AE
:10194000DC40A843051B05D5AD0019D36D08761EF4
:10195000521E37D0F605280A01D2801970BD704199
:101960006D0603D070BD6940FFF788FF9C400902F7
:101970006140490001D0401E70BD0124A04370BDEC
:101980006D081DD001202B0C01D12D0410302B0E21
:1019900001D12D0208302B0F01D12D01001DAB0FFD
:1019A00001D1AD00801CEB0F01D16D00401C6D001A
:1019B000361A121A680AF5054019012A02DB70BDB1
:1019C000002070BDC036300AC00770BD1B0E440237
:1019D00001D1FF2B00D1024870BD002AF0D070BDAC
:1019E0000000C07F8182838485868788898B8C8D67
:1019F0008E8F919293959697999A9C9D9FA0A2A362
:101A0000A5A7A8AAACAEB0B2B3B5B7B9BCBEC0C2A8
:101A1000C5C7C9CCCED1D4D7D9DCDFE2E6E9ECF03A
:101A2000F3F7FAFE441A0000000000201C0000003A
:101A3000EC000000601A00001C000020941400005C
:101A40000801000000000000000000000004000089
:101A50000000000000040000000000000000000082
:04000005000000A94E
:00000001FF
