S01A00005737353030785F506C6174666F726D5F46572E73726563CF
S1130000C03F002051040000390300003D030000FC
S113001000000000000000000000000000000000DC
S11300200000000000000000000000004103000088
S11300300000000000000000450300004903000028
S11300405103000055030000590300006103000040
S113005069030000710300007503000079030000C8
S11300607D03000081030000850300008903000074
S11300708D03000095030000990300009D03000018
S1130080A1030000A5030000A9030000AD030000C4
S1130090B1030000B5030000B3040000B90300007D
S11300A0BD030000C103000010B5012801D00020E9
S11300B000E00120012905D0022901D00D4902E008
S11300C00D4900E00D49062A03D892000C4B9B58B9
S11300D09F46084A0AE00B4A08E0074A06E00A4A33
S11300E004E00A4A02E00A4A00E0044A00F038FA4E
S11300F010BDC04600127A0000366E01001BB70026
S1130100C46100000024F4000048E8010051250205
S1130110006CDC0210B5040000F0D0F9FA2189006B
S113012000F032FA60430138084B98420DD8084A6F
S1130130506008490B6A1B021B0AC02000060343D7
S11301400B62002393600733136010BDFFFFFF00B1
S113015010E000E000ED00E070B5022000F066F968
S1130160002827D0144A138814490888C018144B4F
S11301701B88C01A0138118889B200F075FB002968
S113018005D100F04DF901220E4B1A700FE00C4C12
S11301902588ADB200F044F90B4B58552088013046
S11301A0054B198889B200F05FFB89B221800220D7
S11301B000F046F970BDC04600000020A6000020F3
S11301C0A4000020D0000020D400002010B5204856
S11301D000F012F9002832D01D4800F009F91D4A38
S11301E0138801339BB213801B490B8801339BB2E4
S11301F00B8013889BB2194A934207D90022154BEE
S11302001A80174A13780133DBB21370144B1B782E
S1130210DBB23B2B07D90022114B1A70114A137819
S11302200133DBB213700F4B1B78DBB23B2B06D9C7
S113023000220C4B1A700C4A1368013313600B48EC
S113024000F0DAF8002802D0084800F0D1F810BD18
S113025000100040A800002008090020E603000068
S1130260B1000020B0000020AC00002020100040AD
S113027010B51021044800F0C7F8002803D010215D
S1130280014800F0C9F810BD00C0004070B510214D
S1130290214800F0B9F800283DD0204A13882049AD
S11302A00888C0181F4B1B88C01A0138118889B2EE
S11302B000F0DAFA002906D1174800F0A1F801226B
S11302C0194B5A7023E0194B1B8D022B0ED1134A84
S11302D0138814490888C018114B1B88C01A118848
S11302E089B200F0C1FA124B994210DC0D4C2588FA
S11302F0ADB2094800F084F80E4B585520880130FF
S1130300064B198889B200F0AFFA89B22180102116
S1130310014800F081F870BD00D0004002000020C8
S1130320B4000020B2000020D4040020D80400202F
S11303309A030000080500207047C0467047C04675
S11303407047C0467047C04610B500F045F810BD70
S11303507047C0467047C04610B5FFF789FF10BD0F
S113036010B5FFF793FF10BD10B5FFF7F5FE10BDF4
S11303707047C0467047C0467047C0467047C04685
S11303807047C0467047C0467047C04610B5FFF777
S11303901DFF10BD7047C0467047C0467047C04639
S11303A07047C0467047C0467047C0467047C04655
S11303B07047C0467047C0467047C0467047C04645
S11303C07047C04610B5062200210120FFF76CFEDD
S11303D00120FFF79FFEFEE7044B1B68002B03D0B0
S11303E0024A1368013B13607047C046B8000020FE
S11303F00123C3607047C0464069C0B27047C0461D
S1130400006880B27047C046036C0B4201D00120E3
S113041000E000207047C046436C194341647047B4
S1130420014B186880B2704700600040034BDB68E2
S1130430034201D0012000E000207047006000402A
S1130440024AD3681843D0607047C0460060004039
S11304500549064A064B9B1A03DD043BC858D05095
S1130460FBDCFFF7AFFF0000846500000000002004
S1130470A4000020FEE7FEE7FEE7FEE7FEE7FEE756
S1130480FEE7FEE7FEE7FEE7FEE7FEE7FEE7FEE740
S1130490FEE7FEE7FEE7FEE7FEE7FEE7FEE7FEE730
S11304A0FEE7FEE7FEE7FEE7FEE7FEE7FEE7FEE720
S11304B0FEE7FEE7FEE7FEE7FEE7C046014B1868ED
S11304C07047C046BC00002070B50C00012803D161
S11304D001211F4B196203E000211D4B1962002406
S11304E02100100000F050F8C3B2012B08D8184BBB
S11304F00122DA61174A5A610125012101201BE01A
S1130500134B0022DA610004FC2292031040802283
S11305105200104358615A6901210A400D00954068
S11305205A6952080A409540EDB25969090A3F22B6
S113053011405869000C1040074B1C60604300F0E8
S113054023F8290000F020F8044B186070BDC04661
S11305500010004100010200C0000020BC00002087
S113056010B5054B1C68054B1C60054B1C68054BFE
S11305701C60FFF7A9FF10BDB8FD03001012004175
S1130580BCFD030004100041002243088B4274D3D5
S113059003098B425FD3030A8B4244D3030B8B4280
S11305A028D3030C8B420DD3FF22090212BA030C89
S11305B08B4202D31212090265D0030B8B4219D36A
S11305C000E0090AC30B8B4201D3CB03C01A52418A
S11305D0830B8B4201D38B03C01A5241430B8B42D2
S11305E001D34B03C01A5241030B8B4201D30B03BB
S11305F0C01A5241C30A8B4201D3CB02C01A5241E2
S1130600830A8B4201D38B02C01A5241430A8B42A4
S113061001D34B02C01A5241030A8B4201D30B028D
S1130620C01A5241CDD2C3098B4201D3CB01C01AA7
S1130630524183098B4201D38B01C01A52414309B1
S11306408B4201D34B01C01A524103098B4201D39F
S11306500B01C01A5241C3088B4201D3CB00C01A0C
S1130660524183088B4201D38B00C01A5241430884
S11306708B4201D34B00C01A5241411A00D20146A9
S1130680524110467047FFE701B5002000F0F0F832
S113069002BDC0460029F7D076E7704703460B43F6
S11306A07FD4002243088B4274D303098B425FD367
S11306B0030A8B4244D3030B8B4228D3030C8B4293
S11306C00DD3FF22090212BA030C8B4202D3121279
S11306D0090265D0030B8B4219D300E0090AC30B4E
S11306E08B4201D3CB03C01A5241830B8B4201D3FB
S11306F08B03C01A5241430B8B4201D34B03C01AE4
S11307005241030B8B4201D30B03C01A5241C30A5B
S11307108B4201D3CB02C01A5241830A8B4201D3CC
S11307208B02C01A5241430A8B4201D34B02C01AB6
S11307305241030A8B4201D30B02C01A5241CDD25B
S1130740C3098B4201D3CB01C01A524183098B42A6
S113075001D38B01C01A524143098B4201D34B018F
S1130760C01A524103098B4201D30B01C01A5241F2
S1130770C3088B4201D3CB00C01A524183088B4279
S113078001D38B00C01A524143088B4201D34B0062
S1130790C01A5241411A00D20146524110467047D4
S11307A05DE0CA0F00D04942031000D340425340D9
S11307B000229C4603098B422DD3030A8B4212D399
S11307C0FC22890112BA030A8B420CD389019211CB
S11307D08B4208D3890192118B4204D389013AD008
S11307E0921100E08909C3098B4201D3CB01C01ADD
S11307F0524183098B4201D38B01C01A52414309F0
S11308008B4201D34B01C01A524103098B4201D3DD
S11308100B01C01A5241C3088B4201D3CB00C01A4A
S1130820524183088B4201D38B00C01A5241D9D262
S113083043088B4201D34B00C01A5241411A00D2E3
S11308400146634652415B10104601D34042002BDF
S113085000D54942704763465B1000D3404201B55E
S1130860002000F005F802BD0029F8D016E7704713
S11308707047C04670B500220C4B04000D0000F018
S113088001FF002804D12000290000F091FE70BD72
S1130890064B00222000290000F036FB00F088FE01
S11308A080231B069C466044F1E7C0460000E041FB
S11308B0F8B556465F464D464446F0B40F00FD0F6A
S11308C0AA4609037C002E005F00450F490A7F0DEC
S11308D02943C5001803BC46400A570F640DDB0FBB
S11308E03843D2009A4500D1AAE06646A61B002EE2
S11308F000DCFFE06346002B39D10300134300D032
S1130900D9E06B0709D00F232B40042B05D02B1DF6
S1130910AB42AD416D4249191D000B0200D482E087
S1130920CA4B01349C4200D1FEE00A005646C84B33
S1130930ED081A405007640552020543120B640D7A
S1130940002112030B0D1B056405120B1A436308E7
S1130950C04CF60714401C43640064083443280068
S113096021003CBC90469946A246AB46F8BDB74B25
S11309709C42C6D080231B041843382E00DDEBE0D4
S11309801F2E00DD1EE120239B1B9C4603006746AF
S1130990BB40984613004746F3403B436746BA4082
S11309A0571EBA4113430200F240EB1A9D42B6416E
S11309B01D008A1A7642911B0B0231D54A02560A4F
S11309C0002E00D1B4E0300000F066FE0300083BC6
S11309D01F2B00DDB5E020222900D21AD1409E4011
S11309E00A009D4032439C4200DDB1E01C1B631CA5
S11309F01F2B00DDD5E0202114002800C91A8C40EB
S1130A00D8408D400443DA40681E854111002543D7
S1130A10002476E74146314300D134E231004546B3
S1130A206B0700D06FE756464807ED08C908054331
S1130A30864B9C4235D00A036405120B640D7FE794
S1130A406346E31A9B46002B00DC8BE06746002FCD
S1130A503CD07E4FBC4200D153E780273F0438434B
S1130A605B46382B00DCF7E00243501E8241002035
S1130A70D2B253194218AB4289411D004942891828
S1130A800B02CDD5714B01349C4200D13DE10120D4
S1130A906F4A6B080A4028401843D507054351089C
S1130AA02FE72B000B4300D1CBE180231B030B4327
S1130AB01A03120B44E7013E002E6DD1AE1AB54263
S1130AC09B41091A5B42C91A350075E707001743B1
S1130AD000D116E701235B429C46E3445B46002BAE
S1130AE000D0E0E0AA18AA429B4109185B425918B9
S1130AF01500C5E7002E75D1661C7605760D012E0E
S1130B0000DCF3E0AE1AB0464545BF410E1A7F4201
S1130B10F61B370200D48FE0551BAA42B641411A96
S1130B2076428E1B9A464BE756460022002507E77D
S1130B30280000F0B1FD20300300083B1F2B00DC2F
S1130B4049E72A002838824000259C4200DC4DE712
S1130B503F49E41A1140D4E60243501E8241D3B205
S1130B60002222E7002B00D0F3E0631C9C465B05C7
S1130B705B0D012B00DC9FE0344B9C4500D1C3E0AE
S1130B80AA180918AA42804140424118CD075208C8
S1130B90154349086446B4E62C4B9C4200D0ECE66D
S1130BA0AFE611001F3CE1400C00202B00D17FE098
S1130BB04021CB1A9A4015436A1E954100212543D2
S1130BC000242DE733000700203BDF403B00202EAC
S1130BD070D04027BE1BB0400243501E82411343D5
S1130BE00022E2E6002C4FD0184CA44500D1ABE023
S1130BF08024240476422143382E00DDDFE01F2EBA
S1130C0000DD43E12027BC1BA1460C004F46BC403D
S1130C10A0462C004746F4403C434F46BD406F1E5F
S1130C20BD41F1402C43151BAA429241411A524244
S1130C30891A64469A46BFE641464546314300D088
S1130C40BEE6002600240025F2E6C046FF070000A9
S1130C50FFFF7FFFFFFF0F801F2B59DC2027FF1AA8
S1130C60BC46070063469F405B46B9461700DF4019
S1130C70B8464F4643461F4363469A40531E9A4123
S1130C805B463A43D840F4E60C002C435CD0F64370
S1130C90002E55D1551BAA42A441411A6442091B96
S1130CA09A46644688E6964FBC4200D0D8E628E6C9
S1130CB0002280E700208FE70B002B43002C00D09C
S1130CC0C2E0002B00D101E10300134300D118E678
S1130CD0AB18AB42B6410918764271180A0200D427
S1130CE009E1884A1D00114064460AE6002C5BD1E4
S1130CF00E002E4300D08AE00100114300D1C2E06F
S1130D00010015009A46FCE56446002100258FE6A3
S1130D1020235B429C46DC4463460700DF405B467D
S1130D20BC46202B00D1ACE040235F46DB1B98403F
S1130D300243501E8241634613431A00002098E682
S1130D406F4CA44500D057E70100150064469A464D
S1130D50D7E5002C39D10C002C436ED0DB43002B9B
S1130D601AD0674CA44568D0382B00DDA4E01F2BB3
S1130D7000DDAEE020240F00E41AA740B9462F009E
S1130D80DF40B846A3464F46444627435C46A54049
S1130D906C1EA541D9403D43AD1895429B410918AD
S1130DA05B42591864466BE60C002C4315D10100D4
S1130DB011437BD0010015009A46514CA1E50D4327
S1130DC0691E8D410021ECB22DE74D4CA44534D071
S1130DD0802424045B422143C6E7040014434ED01C
S1130DE0ED084C072C438025C9082D03294208D05F
S1130DF0C6082E4205D1D208410711430C009A4679
S1130E003100620FC900E50011433D4C79E506004D
S1130E10164300D175E5AE1AB0464545BF410E1ADA
S1130E207F42F61B370200D4F4E5551BAA42B641B3
S1130E30411A7642891B9A4663E50100150064460F
S1130E405FE5002200257BE5002B3BD00300134324
S1130E5015D0ED084B072B438025C9082D032942E3
S1130E6007D0C4082C4204D141070B002100D2084A
S1130E701343C9005A0F1143DD00214C41E5204CB6
S1130E803FE5002054E700260025D1E534000F009B
S1130E90203CE7403C00202E2BD04027BE1BB14015
S1130EA00D43691E8D4100212C43BCE680210026A0
S1130EB00903134C0025BBE50D43691E8D41002138
S1130EC0EDB269E7010015000D4C1AE501001500AB
S1130ED017E51C000F00203CE7403C00202B0CD001
S1130EE04027FB1A99400D43691E8D41002125437B
S1130EF052E70021D4E71D0092E50021F3E7C04644
S1130F00FF070000FFFF7FFFF0B557464E464546FA
S1130F10E0B40E001100F20F9246C500420F180310
S1130F2037037400400A4E0F7F0A3043CF4E1743F5
S1130F305A00640D520DDB0FC900B24200D1E5E046
S1130F4001267340A61AB446534500D1AFE0002EE3
S1130F5000DC0DE1002A3AD103000B4300D0E4E0A9
S1130F606B0709D00F232B40042B05D02B1DAB425C
S1130F70AD416D427F191D003B0200D488E0BB4B9C
S1130F8001349C4200D110E13A00B94B51461A4059
S1130F9001235007ED08520264050543120B640D4A
S1130FA00B400021280012030D0D120B64052D05C2
S1130FB015436208AF4CDB072C40144364006408FB
S1130FC01C4321001CBC90469946A246F0BDA74B89
S1130FD09C42C5D080231B0418436346382B00DD94
S1130FE0FDE01F2B00DD30E1624620239B1A020046
S1130FF09A40664690460A009940F24046464B1E87
S113100099413243114363460200DA40691A8D4222
S11310109B410D00BA1A5B42D71A3B0235D57A02BE
S1131020530A98464346002B00D1C4E0404600F0E2
S113103033FB0300083B1F2B00DDC5E02022290001
S1131040D21A4746D1409F400A009D403A439C42F1
S113105000DDC0E01C1B631C1F2B00DDE4E020212D
S113106014002800C91AD8408C408D400443DA404B
S1131070681E854117002543002471E742466346F4
S11310801A4300D14CE2674645466B0700D069E736
S1131090012351467807ED08FA080B4005437349CC
S11310A08C4238D012036405120B640D79E7002ECC
S11310B000DC9AE0002A47D06C4A944200D14FE702
S11310C08022120410436246382A00DC08E10143FE
S11310D0481E81410022C9B24919D219A942BF410F
S11310E00D007F42BF183A0200D442E15F4A013446
S11310F0944200D14EE101205D4A69083A402840FB
S11311000843D507054357089A4629E706000E43C6
S113111000D017E714E72900114300D1F9E1802139
S113112009030A431203120B3BE701235B4298466F
S1131130C4446346002B72D1691A8D429B413F1A05
S11311405B42FF1A0D0068E702000A4300D107E77B
S1131150012252429046C4446246002A00D0E6E08E
S11311606918A942B6413F187642F7190D00BAE74B
S1131170002E00D080E0621C5205520D012A00DCD2
S1131180F9E06A1A91464D45B6413A1A7642921BE5
S11311909046120200D499E04D1BA9428941C71B15
S11311A049427A1A90469A463CE752460123002562
S11311B013400022F5E6280000F06EFA2030030008
S11311C0083B1F2B00DC39E72A0028388240002521
S11311D09C4200DC3EE7264FE41A1740C0E6014378
S11311E0481E81410022C9B210E7002E00D0F1E070
S11311F0621C94465205520D012A00DCA0E01B4AF1
S1131200944500D1C5E06918A94292413F18524261
S1131210D2194908D5070D4357086446A0E6134B75
S11312209C4200D0D9E69BE611001F3CE1400C0033
S1131230202B00D180E04021CB1A9A4015436A1E2E
S113124095410027254300241FE763460200203B05
S1131250DA406346202B71D0402366469B1B98409E
S11312600143481E814111430022CFE6FF070000DD
S1131270FFFF7FFFFFFF0F80002C48D0CA4CA24223
S113128000D1A2E07442A1468024240427434C46A2
S1131290382C00DDDBE01F2C00DD44E14E46202429
S11312A0A41B3E00A640A246B0464C462E00E64093
S11312B0B4464646644626435446A5406C1EA541A2
S11312C034002C434D46EF400D1B28E04A4643466C
S11312D04D461A4300D0A5E6002300240025DEE68F
S11312E01F2A5ADC66462022921B0600964091462D
S11312F0B04662460E00D640424616434A469140E6
S11313004A1E9141020060463143C240E4E63C007B
S11313102C435AD0F443A146002C52D14D1BA94270
S11313208941C71B49427F1A14009A4675E69E4AB2
S1131330944200D0C7E613E600227FE700208FE73F
S1131340002C00D0C8E03B002B4300D10FE1030088
S11313500B4300D104E66918A9429B413F185B4244
S1131360DF193B0200D41AE1904B0D001F40644684
S1131370F6E59A4689E63A002A43002C5CD1002A15
S113138075D102000A4300D1CAE007000D009A4655
S1131390E6E564460022002581E662460600203A1E
S11313A0D6406246B046202A00D1B7E040226646C5
S11313B0921B904001434246481E81411143002242
S11313C08AE6794CA24200D061E707000D001400C0
S11313D09A46C5E5002C41D13C002C4378D0F44317
S11313E0A146002C20D0704CA24271D04C46382C1F
S11313F000DDB2E01F2C00DDBCE02026341BA24639
S11314003C005646B4404E46A0462C00F440A44648
S1131410444666463443A4465446A54064466E1E7C
S1131420B54125434C46E7406D188D4289413F182C
S11314304942CF19140056E6002A2FD102000A436C
S113144000D184E007000D009A46574C88E53D43DF
S11314506F1EBD41ECB200270D1B60E7524CA24247
S113146036D0744280263604A1463743BEE70200D4
S11314700A4300D174E56A1A90464545B6413A1AC2
S11314807642921B9446120200D4F7E54D1BA94202
S11314908941C71B49427F1A9A4661E502000A4303
S11314A03AD0ED087C072C438025FA082D032A4204
S11314B008D0C7082F4205D145072C003A009A46A8
S11314C0C9080C43670FD200E5001743364C47E5C3
S11314D007000D00140043E53A002A4343D00200FC
S11314E00A4319D0ED087C072C438025FA082D0304
S11314F02A4207D0C6082E4204D147073C003200D6
S1131500C9080C43D700620FE50017439A46264CDE
S113151026E50022002544E5234C21E5002049E787
S113152000230025BBE54C463E00203CE6404C46EB
S1131530B446202C31D040244E46A61BB7403D4330
S11315406C1EA54164462C4300270D1BE7E6802250
S113155000231203144C0025A1E53D436F1EBD4139
S11315600027EDB260E707000D000F4CF8E4070018
S11315700D00F5E44E463C00203EF440A0464C46A7
S1131580202C0ED040244E46A41BA7403D436F1E82
S1131590BD4144460027254346E70027CFE70D0019
S11315A073E50027F2E7C046FF070000FFFF7FFF57
S11315B00B0330B5134D1A0B4B005B0DC90F002400
S11315C0AB4211DD104CA34210DC8024640322439F
S11315D00E4CE41A1F2C0CDD0D48C31ADA4013001C
S11315E05C42002900D11C00200030BD094BCC18FE
S11315F0FAE7E040084CA44663449A4013000343CE
S1131600EEE7C046FE0300001D04000033040000A2
S113161013040000FFFFFF7FEDFBFFFF8446101C57
S113162062468C46191C634600E0C0461FB500F0B4
S1131630F5F8002801D40021C8421FBD10B500F000
S113164049F84042013010BD10B500F0E7F8002819
S113165001DB002010BD012010BDC04610B500F014
S1131660DDF8002801DD002010BD012010BDC046BA
S113167010B500F06FF8002801DC002010BD012037
S113168010BDC04610B500F065F8002801DA00204E
S113169010BD012010BDC0461C2101231B0498422B
S11316A001D3000C10391B0A984201D3000A0839EF
S11316B01B09984201D30009043902A2105C4018A6
S11316C07047C0460403020201010101000000004A
S11316D000000000F0B55F4656464D464446F0B45F
S11316E01F035C00DB0F9A46194B0E034D00C90F14
S11316F08046360B6D0D8B4691463F0B640D9D4223
S113170019D0134B9C421BD00123A54206D01800CC
S11317103CBC90469946A246AB46F0BDBE42F6D1CB
S1131720C845F4D1D34510D0002DF0D13043030087
S11317305A1E9341EBE7310001230143E7D1E0E76F
S11317403A430123002AE2D1DEE70023DFE7C04663
S1131750FF070000F0B55F46444656464D46F0B4D8
S11317601F033C0B2C4F0E034D00A3465C00844624
S1131770360B6D0DC90F9046640DDB0FBD422BD0A7
S1131780254FBC422ED0002D0ED130430700814698
S113179078427841002C17D15F463A4314D14B4626
S11317A00020002B0AD006E0002C02D15846024348
S11317B001D099421AD00123484218433CBC9046B8
S11317C09946A246AB46F0BD0028F2D05842584193
S11317D0012240421043F1E737000743D0D00220F2
S11317E04042EBE75F461743CDD0F8E7A542E2DC81
S11317F005DB5E45DFD808D000205E45DED24842D6
S11318004841012340421843D8E7C445D3D80020B7
S1131810C445F4D3D2E7C046FF070000F0B55F46E5
S11318204D4644465646F0B41C03240BA4462F4CA4
S11318300F034D005E00C90F80463F0B6D0D8B46B4
S11318409146760DDB0FA54220D0284CA64222D02B
S1131850002D12D1384344424441002E20D0002CA4
S11318600DD05C42634101245B421C4320003CBC1C
S113187090469946A246AB46F0BD002E17D05B4574
S113188019D05B465C4201231C43EFE73900022474
S11318900143EBD1D9E7614602241143E6D1D7E7EE
S11318A061460A43DBD100240028DFD0E9E7614622
S11318B00A43E4D1E5E7B54203DD01225C42144367
S11318C0D4E7B542CDDB6745DBD809D000246745B2
S11318D0CCD259464C426141012449420C43C5E7EC
S11318E0C845CED80024C845F3D3BFE7FF0700009E
S11318F0002310B59A4203D0CC5CC4540133F9E7F9
S113190010BD03008218934202D019700133FAE724
S11319107047F0B58BB014001D1E129906DA8024AE
S113192024061B191D0014002D2300E000230B7056
S11319302023149E03229E43462E07D03300453BAA
S113194059424B411099013ACB18109309AB0493B7
S113195008AB0393139B00920293109B2200019304
S11319602B0001F0D3FD0700472E02D1119BDB07AA
S11319702DD5109BFB180793462E14D13B78302BA2
S11319800CD10022002320002900FFF757FE002875
S113199004D10123109A9B1A139A1360139B079A7C
S11319A01B68D31807930022002320002900FFF7A7
S11319B045FE3022002802D0079B099307E0099BCB
S11319C00799994203D9591C09911A70F7E738000D
S11319D0099B159ADB1B13600BB0F0BDF7B52B23E5
S11319E007000C000270861C002901DA2D234C42EA
S11319F07B70092C1CDD6B46DD1D20000A21FEF7DF
S1131A0033FF013D3031297020000A21FEF746FEE4
S1131A1004000928F1DC013D30342C706B46073397
S1131A203000AB4209D92B78013533700136F5E724
S1131A303023E4183370B01C7470C01BFEBD00006A
S1131A40F0B595B00C000A920B931A9D099002F020
S1131A5053FE036818000D9300F0F0FD0023129369
S1131A6023680E900C930C99277E2B680722C905D6
S1131A7001D59B1800E0073393431A0008322A600B
S1131A801A685B68A264E3640122E56CA66C6B00CF
S1131A905B080F935242C04B30000F9904F05EFA7A
S1131AA0002819D10122BC4B524230000F99FFF794
S1131AB0D5FD002810D10022002330002900FFF7B3
S1131AC0C3FD002803D023002D2243331A70B34DE5
S1131AD0472F0ED8B24D0CE032002B003000290005
S1131AE004F03CFA002800D19AE1AE4D472F00D80B
S1131AF0AD4D03230C9A236101339A4322600026DF
S1131B0042E0672F00D193E1472F00D190E10C9A76
S1131B100021134312AA059211AA039223222360DF
S1131B200691019308A96368521802920093320047
S1131B302B0004970998FFF7ECFE20233A000500D8
S1131B409A43472A00D18EE11199652F00D996E175
S1131B50200001393A0050301191FFF73FFF129AEB
S1131B60060083182361012A00DD85E12268D2077B
S1131B7000D581E1232308AA9B181B78002B03D0EE
S1131B8023002D2243331A700B9B13AA00932100C8
S1131B900A9B099800F0A4F9431C02D10120404299
S1131BA09BE12268530501D4236964E0652F00D8C2
S1131BB0CCE0A06CE16C00220023FFF73FFD00287D
S1131BC02CD00123794A0A9909980B9DA847431CF4
S1131BD0E4D0119B129A934208DB2368DB0705D4F7
S1131BE0236800259B0700D50FE113E10B9D0E9B95
S1131BF00D9A0A990998A8470025431CCED0129B38
S1131C00013B9D42ECDA220001231A320A99099819
S1131C100B9EB047431CC1D00135F0E7119B002B4C
S1131C202BDC0123614A0A9909980B9EB047431C97
S1131C30B4D0119B002B05D1129B002B02D1236839
S1131C40DB07CDD50B9E0E9B0D9A0A990998B047D8
S1131C500026431CA2D0119B5B429E420ADA22005A
S1131C6001231A320A9909980B9FB847431C95D04F
S1131C700136F0E7129B2A00ACE0A36D129E9E424F
S1131C8000DD1E00002E05DC00230C93F343DB175C
S1131C900F9315E033002A000A9909980B9FB8475F
S1131CA0431CF1D17AE7220001231A320A990998D8
S1131CB00B9FB847431C00D170E70C9B01330C9376
S1131CC00F9BA26D0C993340D31A9942EBDBAE18EB
S1131CD0119B129A93420DDB2368DB070AD4129BF3
S1131CE0119AED18AD1B9B1A9D4200DD1D00002DBD
S1131CF009DC11E00E9B0D9A0A9909980B9FB847CD
S1131D00431CECD14AE72B0032000A9909980B9E38
S1131D10B047431C00D141E7EF43FB1700260C9367
S1131D200AE0220001231A320A9909980B9FB84746
S1131D30431C00D132E70136119A129B0C999B1A6D
S1131D402A000A409B1A9E42EBDB49E7129B012BB7
S1131D5002DC01231A4245D001232A000A9909987A
S1131D600B9FB847431C00D118E70E9B0D9A0A99A4
S1131D7009980B9FB847431C00D10FE7A06CE16C96
S1131D8000220023FFF75AFC002801D000251AE0A6
S1131D90129B6A1C013B26E0FFFFEF7FE461000019
S1131DA0E0610000EC610000E8610000F061000007
S1131DB0220001231A320A9909980B9FB847431C41
S1131DC000D1EBE60135129B013B9D42F0DB220082
S1131DD0330050320A9909980B9DA847431C00D040
S1131DE0FEE6DBE62A000A9909980B9DA847431CE6
S1131DF0EDD1D3E62200012319320A9909980B9EEA
S1131E00B047431C00D1C9E60135E368139A9B1A15
S1131E109D42EFDB139BE06898425EDA18005CE0B9
S1131E2080236268DB00511C00D06AE6073202E0BE
S1131E30002A02D10122626069E60C9908A80B43CA
S1131E400021069112A9059111A9039123210918D2
S1131E502360019300922B000497029132000998A9
S1131E60FFF757FD0500119BDA1C02DB6268934201
S1131E701CDD023FFFB267E6013323617AE6662F79
S1131E8015D16368002909DD2161002B02D1226884
S1131E90D2071ED50133591821611AE0002B03D152
S1131EA001222168114213D09A1C11E06727119B6B
S1131EB0129A934206DB22682361D20709D50133C3
S1131EC0236106E00121002B01DC4918C91A8A1894
S1131ED02261119B0026A3654CE615B0F0BDC046F7
S1131EE0F7B5170001938A680B6900900C009342C0
S1131EF000DA130022003B6043321278002A01D03A
S1131F0001333B6023689B0602D53B6802333B6088
S1131F10062523681D401ED0230043331B785A1E18
S1131F209341226892061CD53020E1184331087091
S1131F3021005A1C45310978A2184332023311702A
S1131F400FE022000123193201990098089EB0473E
S1131F50431C0ED00135E3683A689B1A9D42F0DBBE
S1131F60DAE72200019943320098089DA847431CF0
S1131F7002D10120404220E006232068E1683A684B
S1131F8003400025042B03D18D1AEB43DB171D40BE
S1131F90A3682269934201DD9B1AED180027BD4214
S1131FA00AD0220001231A3201990098089EB047F2
S1131FB0431CDED00137F2E70020FEBDF0B58BB044
S1131FC006920A0043320793059004920A7E0C009D
S1131FD0109B6E2A00D1ABE011D8632A22D009D815
S1131FE0002A00D1B5E0582A00D0C5E045310A7076
S1131FF0814A4FE0642A1DD0692A1BD0BCE0732AB1
S113200000D1AAE009D86F2A29D0702A00D0B3E001
S1132010202209680A43226037E0752A1FD0782AF3
S113202033D0A9E00E001A684236111D19601368F6
S11320303370A4E021681A68080606D4490604D55A
S1132040111D19600023D55E02E0111D1960156889
S1132050002D3BDA2D23049A6D42137036E021687B
S11320601A68080606D4490604D51568111D1960B6
S1132070ADB202E0111D196015685F4B227E039317
S113208008276F2A1DD00A271BE022007821453239
S113209011705A4A19680392081D226818600D6865
S11320A0100602D4500600D5ADB2D30702D52023C2
S11320B01A4322601027002D03D1202322689A435B
S11320C022602300002243331A7002E00A274A4B9D
S11320D003936368A360002B09DB04222168914306
S11320E02160002D05D1049E002B11D07BE0002D32
S11320F079D0049E28003900FEF7CCFA039B013EF8
S11321005B5C280033703900FEF73EFA051EF1D1FE
S1132110082F09D12368DB0706D563682269934237
S113212002DC3023013E3370049B9B1B23612BE0B4
S113213009681A68080607D4490605D5111D1960EF
S11321401368A28A1A8004E0111D19601368626979
S11321501A600023049E236116E01A68111D196099
S1132160166800216268300002F0D4FA002801D019
S1132170801B6060636803E02600423632700123EE
S113218023610023049A1370079B09AA009321007A
S1132190069B0598FFF7A4FE431C02D10120404290
S11321A027E02369320006990598079DA847431C38
S11321B0F4D0236800259B070FD4099BE06898425C
S11321C017DA180015E02200012319320699059840
S11321D0079EB047431CE1D00135E368099A9B1A76
S11321E09D42F0DBE9E72600039B42361B783370FF
S11321F08EE70BB0F0BDC046F26100000362000040
S1132200F0B58BB0029000920020AE2205938B684B
S11322100E00591E52000490914205D95E3BFF3BCB
S113222004935E23FF33B360F0233268DB0013436F
S11322303360330000271C331D003C0003930897D0
S1132240079701970697B268002A00D1E6E0009B41
S11322501B6809931B78492B74D018D8392B0DD8D7
S1132260312B42D22D2B48D002D82B2B45D0D5E090
S11322702E2B00D18DE0302B25D0CFE0452B00D183
S113228090E0462B79D0412B00D0C7E056E0652B77
S113229000D187E00AD8542B73D002D84E2B34D007
S11322A0BCE0592B71D0612B48D0B7E06E2B2CD0F9
S11322B004D8662B61D0692B44D0AFE0742B60D076
S11322C0792B62D0AAE03168C8050ED580239943E2
S11322D0019B316001330193049B002B00D181E009
S11322E0013B01320493B2607CE0E219002A00D081
S11322F094E0BA4A31680A4005E0802132680A4213
S113230000D18BE08A4332606AE0002C0FD1019A3D
S1132310002A0ED1E022E0203168D2000A40C00039
S1132320824206D1AE4A01340A40326058E0022C9F
S113233055D0012F1ED0042F1CD06FE0012C6DD17D
S113234002244DE0002F0FD1019A002A69D1E02226
S1132350E0203168D2000A40C000824265D1A04A20
S113236001370A4032603BE00221FA1E8A43D2B2AE
S1132370002A53D10137FFB232E0022F4ED1032796
S11323802EE0062F4AD107272AE0072F46D1082737
S113239026E031688A0541D5924A0A403260019AA2
S11323A006921DE0A02280203168D2000A40C000BD
S11323B0824204D0014231D0019A002A35D08A05E4
S11323C004D4019A06980895121A0792844A0A407E
S11323D0C02149000A4332600022019200E0032434
S11323E02B700135B368009A013BB3603369013344
S11323F03361009B5B680993013B5360002B04DD50
S113240013680993013313601DE7C0235B00F3587D
S1132410009902989847002800D114E7019B002BEB
S113242003D03268704B13403360013C012C10D848
S1132430BE246400039B9D4209D9013D3359297888
S1132440009A029898473369013B3361F2E701230C
S1132450BFE07B1E062B2AD8022F02D8BE246400BC
S113246018E03C000495013CE4B2022C0ED0049B1D
S1132470009A013B04931978BE235B00F358029839
S1132480099398473369013B3361ECE7033FFFB29B
S1132490ED1B0CE0039B9D42D9D9013D33592978AA
S11324A0009A029898473369013B3361F2E7336835
S11324B0DA052BD55B050ED5BE246400039B9D4233
S11324C0C5D9013D33592978009A02989847336950
S11324D0013B3361F2E733696C1E2178013B3361C0
S11324E065290CD045290AD0BE235B00F358009A15
S11324F0029898473369AC1E013B21783361BE23AF
S11325005B00F358009A029898472500102332681C
S11325101A4000925CD16B461B782B70C023326842
S1132520DB0013408022D200934206D1069A019B1D
S11325309B1A5A42002B0DD118E0079B002B15D093
S1132540089B009A591C02980A2300F0C7FE079BB7
S1132550089DC21A33007033FF339D4202D3350005
S11325606F35FF352149280000F046F80022039911
S1132570029800F083F8059B326804000D001B6884
S1132580910701D51A1D04E004210A40019206D0E6
S11325905A1805990A601B681C605D6014E005996F
S11325A01A1D0A601F6822002B002000290003F076
S11325B0D5FC002803D0019800F01AF803E02000AD
S11325C0290003F065FD3860F3680133F36001E02E
S11325D00023009300980BB0F0BDC0467FFEFFFFC0
S11325E07FF8FFFF7FFDFFFFFFFEFFFF1462000087
S11325F0004870470000C07F0EB410B59DB002A91A
S1132600029008610B48822488604861012040429E
S11326101FABC881084804CBA400006801938C81D7
S113262002F098FD0023029A13701DB010BC08BC80
S113263003B01847FFFFFF7F680000200023C25C3F
S11326400133002AFBD1581E7047000070B51600F4
S11326500D0002F03FFB002E0DD06B226B005B0DD2
S1132660D31A002B07DD0024034A1B059D182B00F9
S1132670220003F0F9F970BD0000F03F0023F0B52B
S1132680A3B01E93002600270B0002900491189219
S11326901D931D9B1A780D2A05D8092A14D2002AE5
S11326A000D1BDE112E02B2A04D02D2A04D0202A27
S11326B00CD109E0002200E0012210925A1C1D9264
S11326C05B78002B04D1ABE10133E1E700231093E5
S11326D000221D9D09922B78302B5DD16B78582BED
S11326E001D0782B4CD1109BC24A01931EAB0093AE
S11326F01DA91FAB029801F018FD072403900440A4
S113270001D100F0BCFD062C05D1002301351D9537
S1132710109300F0B4FD1E9A002A07D0352120A89A
S113272002F0C4FB1E99029802F037F8062C1DD85B
S1132730200002F079FE040A0715180A0400002795
S11327403E0013E0209E219F10E0219BAA4AAB4942
S11327501A401F9B209E5B181B051A43170005E0B7
S1132760A74F002602E00126A64F7642039B1B07D3
S113277001D400F084FD80231B061F4300F07FFD7D
S11327801D9B5A1C1D925B78302BF9D0002B01D174
S113279000F075FD0123099300250A221D9B08956D
S11327A00C9306951D9C23780393303BD9B20929D9
S11327B010D80699082904DC089951435B1808933A
S11327C002E0290051435D18069B0134013306934E
S11327D01D94E7E7029801F08FFF036802980593C0
S11327E001F08AFF0068FFF729FF05990200200025
S11327F002F0C0FD041E06D00020069A039B844606
S1132800039205905AE0029801F076FF0068FFF702
S113281015FF1D9B069A18181D900378101E3ED1B3
S1132820302B05D11D9B01305A1C1D925B78F7E7B4
S11328301A00313A082A3CD8844600201D9A039095
S11328400C92303B421C002B23D00A219444039A5F
S1132850101882420BD00132541E082C03D8089C55
S11328604C430894F5E7102AF3DC4D43F1E7511C7F
S11328700391082A06DC0A2208994A439B18089304
S1132880002206E003990022102902DC0A21694390
S11328905D181D9B1000591C1D915B7803E02000FE
S11328A0A446069A03921A00303A092AC9D9012289
S11328B003E000220392944601320592202219007B
S11328C091430A000021452A4DD1039B099A0343F1
S11328D013438B4200D1A3E01D9B049301331D934A
S11328E0049B5B782B2B04D00C002D2B07D10124E7
S11328F000E00C00049B02331D93049B9B781A0098
S1132900303A092A2CD8302B04D11D9B5A1C1D9215
S11329105B78F8E71A00313A0021082A23D8303BC3
S11329200A931D9B11931D9B591C1D915B781A00E2
S1132930303A092A06D80A220A994A43D218303A68
S11329400A92F0E7119A8A1A2F49082A04DC0A9994
S11329502D4A914200DD1100002C04D0494202E0CE
S11329600021049A1D92039A002A64D1099A104303
S113297001D000F084FC059A002A51D14E2B1CD0C2
S113298002DC492B05D04BE0692B02D06E2B14D00E
S113299046E01E491DA801F004FE002840D01D9BFE
S11329A01B49013B1DA81D9301F0FBFD002802D12A
S11329B01D9B01331D93124F18E016491DA801F009
S11329C0F0FD00282CD01D9B1B78282B0DD120AAAC
S11329D011491DA801F0F9FD052806D1219B084ADB
S11329E0209E1A43170000F04AFC0C4F002600F00A
S11329F046FCC04630620000FFFFEFFF33040000D6
S1132A000000F07FFFFFFF7F1F4E0000E561000024
S1132A1074630000ED6100001C6200000000F8FF18
S1132A20049B1D9300231093189B002B01D000F0EE
S1132A3029FC00F032FC6346CB1A0593069B002B5D
S1132A4001D1039B0693039C102C00DD10240898ED
S1132A5003F0E6FA06000F00092C15DD2300874A6F
S1132A60093BDB00D3181A685B6802F0FDFF06001F
S1132A7028000F0003F0D4FA02000B0030003900E4
S1132A80FDF716FF06000F00039B0F2B3ADC059B96
S1132A90002B01D100F0F3FB26DD162B07DC774970
S1132AA0DB00C9183200086849683B0017E0252399
S1132AB0039A9B1A059A9A4224DC0F24039B6F4DB8
S1132AC0E41AE10069183200086849683B0002F022
S1132AD0CBFF059B1C1BE4002D192A686B6802F0D0
S1132AE0C3FF06000F00CAE3059B16330ADB059BF0
S1132AF03000DA00614B39009B1A1A685B6802F0F7
S1132B009DFCEEE7039B1C1B059BE418002C59DD80
S1132B100F2323400AD05949DB00C9183200086842
S1132B2049683B0002F0A0FF06000F000F239C43FE
S1132B3000D1B3E02633FF339C420DDD002403941F
S1132B400894059422230026029A4D4F1360089B93
S1132B50B34200D07FE392E30023300039001D002C
S1132B602411012C0DDD0122144207D0454AEB004B
S1132B709B181A685B6802F077FF01230135641023
S1132B80EFE7002B01D006000F003F4BED00FF18CC
S1132B903C4B32005D19286869683B0002F064FF11
S1132BA0374B0F000B40394906008B42C6D83849D1
S1132BB08B4203D90126374F76426FE0D4239B041E
S1132BC0FF186BE0002C69D00F23644223400AD025
S1132BD02A4ADB00D31830001A685B68390002F017
S1132BE02DFC06000F00241158D01F2C04DD0024F6
S1132BF003940894059426E100230493E30601D585
S1132C006A230493300039000023234D002C0ADD8D
S1132C100122144204D02A686B6802F025FF0123C4
S1132C2064100835F2E7002B01D006000F00049B66
S1132C30002B19D06B227B005B0D3900D31A002BBB
S1132C4012DD1F2B0CDD0026342B02DDDC27BF0434
S1132C500AE00122203B52429A4011400F0003E057
S1132C60012252429A4016400022002330003900CB
S1132C70FEF7E4FC0028BAD112E0C046F06300007D
S1132C800000F07FC86400000000B0FC0000A07CDD
S1132C900000907CFFFFEF7F486200000023049354
S1132CA0089B069A00930C99039B029801F0CBFDB4
S1132CB00890002800D141E7059B00245A42DB1705
S1132CC01A40059B1392DB43059ADB171A401192B5
S1132CD00394089B0298596801F027FD0590002889
S1132CE000D12FE7089B08991B690C319A1C9200AC
S1132CF00C300693FEF7FCFD20AB01931FAB009351
S1132D0032003B0002980C960D9702F053F81E9087
S1132D10002800D116E70121029801F01CFE03905F
S1132D20002800D10EE71F9B002B00DA95E0139AD0
S1132D30D518119A0992049920985B1A3621091A18
S1132D401B188C46C549013B01208B4200DB8FE0F8
S1132D506246C91A521A94461F2900DD82E088404F
S1132D60002312900A932B0063440693099B049A50
S1132D706344D3180993069B2A009D4200DD1A0080
S1132D80099B934200DD1300002B06DD069AED1A21
S1132D90D21A0692099AD21A0992139B002B6BD16C
S1132DA0069B002B00DD80E0119B002B00D086E009
S1132DB0099B002B00DD8CE0002D00DD93E0059ADB
S1132DC01E99029801F01BFF041E00D1BAE60025EB
S1132DD0C3680399C560099301F0F6FEA84200DBBD
S1132DE08FE0099BAB4200D020E2AE4200D01DE24E
S1132DF03B03AB4200D019E2D622994BD2043B40AC
S1132E00934200D812E26369AB4276D021000122DA
S1132E10029801F087FE0399040001F0D5FE002812
S1132E2000DC03E2049A8E4B002A00D199E01A00D8
S1132E30D6213A40C9048A4200DD92E0DC239B0497
S1132E409A4200DDF5E12223029A00261360089BD2
S1132E500027002B00D0FEE111E2119A139DD21A33
S1132E60099268E77F49CB1A010099400A9101E071
S1132E7000230A93129076E71A000399029801F04E
S1132E80FDFD0390002800D15CE601001E9A029823
S1132E9001F06AFD1990002800D153E61E990298AA
S1132EA001F07BFC199B1E937AE7069A1E990298FF
S1132EB001F038FE1E90002800D075E742E6119A12
S1132EC00599029801F0DAFD0590002800D06FE71B
S1132ED038E61A000599029801F024FE05900028AE
S1132EE000D069E72EE62A000399029801F01AFE41
S1132EF00390002800D062E724E62369012B85DCD7
S1132F0094E1002864D1099A3B03002A24D0564A4C
S1132F1039001B0B93422DD1049B0138B4460200A7
S1132F20002B0AD0D4254E4BED043B40AB4204D8D1
S1132F306C321B0DD31A02009A4062451AD14B4BD6
S1132F40994202D1531C00D1FCE5454B002619409F
S1132F5080235B03CF1869E1002B0BD1002E09D12C
S1132F6060E70126424A3B409B183F4A76421A4397
S1132F7017005BE10A9B002B03D03B4200D155E1D3
S1132F8003E0129B334200D150E1099B049A3000C4
S1132F903900002B0AD0FFF759FB02000B000C98F4
S1132FA00D99FDF785FC06000F003FE1FFF74EFB8E
S1132FB002000B000C980D99FDF7A6FF00220023D8
S1132FC006000F00FEF73AFB002800D03BE72DE196
S1132FD00399200001F042FF80230022DB050690C4
S1132FE00791FEF73BFB00284AD0099B002B04D035
S1132FF00022204B0A920B930EE0002E02D13B03D9
S113300005D10CE0012E02D1002F00D11BE70022D4
S11330100025194B0A920B93164B069349E00022A4
S113302006980799134BFEF70FFB002808D1069862
S113303007990022114B02F017FD0500069102E0EA
S11330400E4B099D0693802212069446069B1A9500
S113305063441B931A9A1B9B29E0C04602FCFFFFA2
S11330600000F07FE2FBFFFFFFFF0F00FFFFEF7F99
S11330700000F0FF0000F03F0000F0BF0000E03F60
S1133080894B06980799002202F0EEFC099B050083
S11330900691002B05D180231B06CB1814901593A1
S11330A003E00200069B14921593149A159B0A924E
S11330B00B937E4B3B401293129A7D4B9A4229D13B
S11330C00C9A0D9B0E920F937A4B3000FF18390027
S11330D001F000FE02000B000A980B9902F0C4FCF8
S11330E032003B00FDF7E4FB704A734B06000A40D4
S11330F09A420BD9714B0F9A9A4203D10E9B01331A
S113310000D11FE501266D4F76427EE0D4239B0457
S1133110CF1844E0049B002B2FD0D423129ADB0455
S11331209A422AD8664A674B28000699FEF796FA0F
S113313000281BD028000699FDF79CFB002800D12D
S1133140013002F06DFF099B05000691002B05D1AB
S113315080231B06CB181690179303E00200069BEE
S113316016921793169A179B0A920B93D6220B9BCF
S1133170D2049B18129A9B1A0B930C980D990A9ED1
S11331800B9F01F0A7FD02000B003000390002F094
S11331906BFC0C9A0D9BFDF78BFB06000F00049B48
S11331A0002B32D1414B129A0A973B409A422CD1C0
S11331B006992800FEF7FCF902F0F0FE0B0002006D
S11331C006992800FDF7A0FE099B06900791002BA5
S11331D004D1002E02D10A9B1B030ED00698079936
S11331E0394A3A4BFEF730FA002834D10698079949
S11331F0374A2D4BFEF73CFA05E0334A354B069827
S11332000799FEF721FA002825D11E99029801F0AA
S1133210C4FA0599029801F0C0FA0399029801F0E2
S1133220BCFA2100029801F0B8FA52E5049B002B85
S113323011D0294B30000F9300230E9339000E9ABE
S11332400F9B02F011FC06000F1E04D1002802D1CE
S11332502223029A13601E99029801F09EFA05999E
S1133260029801F09AFA0399029801F096FA0899E3
S1133270029801F092FA2100029801F08EFA189B4C
S1133280002B02D0189B1D9A1A60109B002B04D0AF
S113329080231B063200FB1801E032003B001000C3
S11332A0190023B0F0BDC0460000E03F0000F07FED
S11332B00000E07F0000B0FCFFFF9F7CFFFFEF7F7A
S11332C00000C0FFFFFFDF419535A094FFFFDF3F03
S11332D035E5AF35FFFFCF3F00005039F0B51E0094
S11332E0454B87B01B680192029308220B0005909E
S11332F003911C7802995D1C09194878104001D08B
S11333002B00F6E72D2C04D19D1C5C78012300933F
S113331004E000902B2C01D15C789D1C002E02D07F
S1133320102E0AD162E0302C5ED120222B789343F8
S1133330582B54D110266C780235009F31007B1E27
S11333409F412E4BFF183800FDF7A4F93800049173
S11333503100FDF719F900230322070094461800F1
S1133360029A121951780422114201D0303C07E02C
S11333706246114017D03722012900D02032A41A06
S1133380A64210DD5A1C0BD0B84207D802D1049BC8
S11333909C4203DC70430123201801E001235B42BB
S11333A02C780135DCE75A1C0BD10098059A431E92
S11333B09841124BC01822231360019B002B0AD1A1
S11333C017E0009A002A00D04042019A002A10D047
S11333D0039A002B00D06A1E019B1A6009E0302476
S11333E0002EAAD10826A8E70A26A6E7302C9CD0EE
S11333F0A3E707B0F0BDC04604000020FFFFFF7F35
S1133400F0B503690C6989B00700059100269C4258
S113341079DC0B00013C1433A50003935B1904937E
S11334200300143302935D19049B28681B68591C1C
S11334300193FDF7A9F80190B04233D0039B0298A1
S11334409C460696634604CB9C46019B91B2594325
S1133450120C5A4389190B0CD3180793069A1E0CA5
S1133460038889B29B1802685B1A110C6A46928B16
S11334708A1A1914521811149BB21204134308C067
S1133480049B06916345DDD22B68002B0AD1029B75
S1133490043DAB4201D33C6104E02B68002BFAD11C
S11334A0013CF4E70599380001F08EFB002829DB84
S11334B00020019B02990133039A019340CA0B88AF
S11334C01818B3B2C31A0868360C000C801B1D14FC
S11334D0451928149BB22D042B4308C1049B934225
S11334E0ECD2029AA300D3181A68002A0AD1029ACD
S11334F0043B9A4201D33C6104E01A68002AFAD1E1
S1133500013CF4E7019E300009B0F0BDF0B51600AF
S11335101F00446A9DB00490259D06960797002CD1
S113352008D1102001F0ECF8049B586244608460D8
S11335300460C460049B5B6A196800290BD05A6854
S1133540012393404A608B60049801F026F900221D
S1133550049B5B6A1A60079B002B05DA01232B602E
S11335607B005B08079301E000232B60079CC84B9A
S1133570220019931A409A4219D1C64B249A136017
S1133580069AC54B002A02D1240300D1C34B269AC4
S11335901800002A01D100F07DFDD978DA1C002939
S11335A000D00532269918000A6000F073FD069ECB
S11335B0079F0022002330003900FEF73FF8051E64
S11335C00ED00123249A1360B54B269A1800002AC2
S11335D001D100F05FFDB34A26990A6000F05AFD5C
S11335E01AAB01931BAB009332003B00049801F02B
S11335F0E1FB630005905B0D09D03A03AA4C120B62
S11336001443AA4A300021009E1817951AE01A9B09
S11336101B9A9E18A64BF318202B08DDA54A069882
S1133620B218D0404022D31A9C40204303E0202209
S11336300698D31A984002F0F3FC01239E4C013EF5
S11336400919179300229D4BFDF75EFC9C4A9D4B84
S113365002F00AFA9C4A9D4BFDF72AF90400300057
S11336600D0002F09BFC9A4A9A4B02F0FDF902000D
S11336700B0020002900FDF71BF904000D00FDF7E5
S113368097FF00220390002320002900FDF7DCFFB0
S113369000280DD0039802F081FC02000B002000EA
S11336A02900FDF7CBFF43424341039AD31A039306
S11336B001231693039B162B11D88749DB00C918E5
S11336C008684968069A079BFDF7D2FF002805D0D1
S11336D0039B013B03930023169300E016901A9B6F
S11336E09E1B00230B93013E0C9604D50C9B5B425E
S11336F00B9300230C93039B002B08DB039A0C9B76
S1133700944663440C9300231192089307E00B9BA7
S1133710039A9B1A0B935342089300231193229B01
S11337200125092B25D8052B02DD0025043B229316
S1133730229B981E032824D801F076FE060E02046C
S1133740012302E0012308E000231093239B002BB4
S113375020DD1F000A9321E00023239A1093039B8A
S11337609F187B1C0A930123FA18002A16DD130004
S113377014E0012700237F42229310950A97123305
S113378005E0012701237F4210930A971133002299
S1133790239203E001273B000A972397049A546A73
S11337A000226260043211001431994204D8616825
S11337B0520001316160F6E76168049800F0B5FFDA
S11337C0049B20605B6A1B680D930A9B0E2B00D937
S11337D081E1002D00D17EE1069B079C1493159492
S11337E0039B002B31DD0F223B491340DB00CB1838
S11337F05C681B680E930F94039B02241D11EB0657
S11338000AD514981599354B15401A6A5B6A01F06C
S113381015FE069007910134304E002D0ED0012381
S11338201D4208D00E980F99E4183268736802F0AC
S11338301BF90E900F916D100836EEE70E9A0F9B50
S11338400698079901F0FAFD4CE0039B02245D42BF
S1133850002D49D0149815990F231F4A2B40DB00E3
S1133860D3181A685B6802F0FFF8002306900791EA
S11338701A4E2D11002D33D00122154205D0A41863
S11338803268736802F0F0F801236D100836F1E72E
S11338900000F07F0F2700007A63000071630000CE
S11338A0F0610000F16100000000F03F01FCFFFF47
S11338B03204000012040000000010FE0000F83F73
S11338C061436F63A787D23FB3C8608B288AC63F22
S11338D0FB799F501344D33FF0630000C864000099
S11338E0002B01D006900791169B002B1DD0069D3E
S11338F0079E0022C74B28003100FDF7A5FE0028D3
S113390013D00A9B002B10D0002F00DCDFE0039BB8
S11339103100013B0E930022BF4B280002F0A4F8B3
S11339200134069007913E0002E0039B0A9E0E9329
S1133930200002F033FB069A079B02F095F8002260
S1133940B64BFCF7B5FFB64A12901391129C139D27
S11339509446139B634418931D00002E1CD10698B3
S113396007990022AF4BFDF7CFFA2200189B06906F
S11339700791FDF77DFE002800D054E2AA48139970
S1133980844661440B00069807992200FDF75CFE0B
S1133990002800D03DE29AE0109A731EA349DB0090
S11339A0002A49D0CB181A685B680020A04901F0AE
S11339B045FD2B002200FDF7A7FA129013910D9DEF
S11339C006980799FDF7F4FD040002F0E7FA0200F7
S11339D00B0006980799FDF797FA01356B1E3034F2
S11339E01C70129A139B06900791FDF72DFE002878
S11339F000D02EE3069A079B00208649FDF784FA3F
S1133A00129A139BFDF720FE002800D0C7E00D9BFF
S1133A10EB1AB3425BDA1298139900227E4B02F040
S1133A2023F8002212901391069807997A4B02F01A
S1133A301BF806900791C3E7C91822000868496873
S1133A402B0002F011F80D9C12901391A519069801
S1133A500799FDF7ADFD060002F0A0FA02000B0085
S1133A6006980799FDF750FA30362670013406900F
S1133A7007910022A54222D16D4B12981399FCF7AD
S1133A8017FF02000B0006980799FDF7F1FD0028C7
S1133A9000D084E0129A139B00206549FDF734FAA4
S1133AA002000B0006980799FDF7CEFD00280ED002
S1133AB06B1E1A78302A00D0CBE21D00F8E7069876
S1133AC00799554B01F0D0FF06900791BFE7149B6F
S1133AD0159C069307941B9B002B00DA81E0039A44
S1133AE00E2A00DD7DE0D300504AD3185C681B68C1
S1133AF008930994239B002B15DA0A9B002B12DCF4
S1133B0000D088E1089809990022464B01F0ACFFE7
S1133B10069A079BFDF7B6FD0A9B08931E00002832
S1133B2000D07BE182E10D9D069E079F089A099BC8
S1133B303000390001F082FCFDF73AFD040002F088
S1133B402DFA089A099B01F08FFF02000B00300048
S1133B503900FDF7D9F9220001356B1E30321A7095
S1133B600D9B0A9AEB1A9A422ED102000B00FCF725
S1133B709FFE06000F0002000B0008980999FDF74C
S1133B8063FD00280FD10898099932003B00FDF726
S1133B9055FD002800D15EE2E30704D45BE20E9BEE
S1133BA0039300E01D006B1E1A78392A08D10D9A80
S1133BB09A42F7D1039A0D990132039230220A7086
S1133BC01A7801321A7046E20022134B01F04CFFBE
S1133BD00022002306000F00FDF730FD0028A5D0C9
S1133BE039E2109A002A44D0229A012A0BDC179A4F
S1133BF0002A02D00F4A9B1802E036231A9A9B1A15
S1133C00089D0B9C29E00A9B5D1E089BAB4213DBBD
S1133C105D1B18E00000F03F0000244000001C4041
S1133C200000C0FC000014400000C07CF0630000F1
S1133C300000E03F33040000089B0895EA1A0025C1
S1133C40119B9B1811930A9B002B04DA0B9B0A9A75
S1133C509C1A002301E00B9C0A9B0B9A0121D218A9
S1133C600B920C9A0498D3180C9300F074FE06007F
S1133C7002E0089D0B9C109E002C0ED00C9B002B88
S1133C800BDD0C9A2300944200DD13000B9AE41A16
S1133C90D21A0B920C9AD31A0C93089B002B20DD9A
S1133CA0109B002B17D0002D11D031002A0004984E
S1133CB000F0E4FE059A01000600049800F054FEAA
S1133CC005990E90049800F068FD0E9B0593089BDF
S1133CD05A1B06D000E0089A0599049800F0CEFE1D
S1133CE005900121049800F036FE119B0890002BEA
S1133CF000D1C0E11A000100049800F0BFFE229B2D
S1133D000890012B17DC0025069BAB420ED1079BC4
S1133D101B03AB420AD1199B079A134206D00B9B93
S1133D20013501330B930C9B01330C93119B012040
S1133D30002B0DD000E00025089B089A1B690E9308
S1133D4003339B00D318586800F0BBFD2023181AD6
S1133D500C9BC0181F23184009D001331B1A042BD5
S1133D6002DD1C23181A03E0042B08D018001C30B1
S1133D700B9B24181B180B930C9B1B180C930B9B6D
S1133D80002B05DD1A000599049800F0CBFE059080
S1133D900C9B002B05DD1A000899049800F0C2FE64
S1133DA00890169B002B1DD00899059800F00CFF75
S1133DB0002817DA039B0A22013B03930599002389
S1133DC0049800F003FD109B0590002B00D159E1ED
S1133DD0310000230A22049800F0F8FC0600002FAA
S1133DE037DC33E00A9B0A9F002B2ADC229B022B40
S1133DF027DD002F12D108993B000522049800F01A
S1133E00E5FC08900100059800F0DEFE00280DDCBA
S1133E1004E0089602E000231E000893239B0D9DF6
S1133E20DB4303930AE00E9B089603930D9B0D9AC4
S1133E305D1C31231370039B013303930A96002600
S1133E40F3E0109B002B04D10D9DB5E0229B022BC7
S1133E50CFDC002C05DD31002200049800F062FE66
S1133E6006000A96002D12D07168049800F05DFCDB
S1133E703100040033690C319A1C92000C30FDF7B8
S1133E8037FD01222100049800F04CFE0A900D9B9E
S1133E907D1E0B935B190E9308990598FFF7B0FAF2
S1133EA0310010900400059800F08EFE0A9A050077
S1133EB00899049800F0A3FE01230C93C3683034DE
S1133EC00700002B04D10100059800F07DFE0C9042
S1133ED03900049800F061FC0C9B229A134308D12A
S1133EE0069A0133134204D1392C2AD0002D1CDC4C
S1133EF01DE0002D06DB229B1D431BD10123069AE6
S1133F00134217D10C9B002B11DD05990122049853
S1133F1000F008FE0899059000F056FE002802DC27
S1133F2005D1E30703D5392C0BD0109C31340B9BFE
S1133F305D1C0FE00B9B5F1C0C9B002B0CDD392CD4
S1133F4005D10B9B0B9A5D1C3923137057E03D0080
S1133F500B9B01341C7068E00B9B0E9A3D001C7097
S1133F6093423CD000230A220599049800F02EFCC9
S1133F700A9B05909E4208D1310000230A2204982E
S1133F8000F024FC06000A900DE0310000230A2210
S1133F90049800F01BFC002306000A220A990498E6
S1133FA000F014FC0A900B9776E700230A22059987
S1133FB0049800F00BFC059008990598FFF720FA87
S1133FC00D9B3030287001350400EB1ABB42ECDB4A
S1133FD03D1E00DC01250A9600260D9B5D190599FE
S1133FE00122049800F09EFD0899059000F0ECFD74
S1133FF0002804DC13D1E30701D410E01D006B1E7C
S11340001A78392A08D10D9A9A42F7D1039B0133C1
S113401003933123137008E001321A7005E06B1E1C
S11340201A78302A01D11D00F9E70899049800F0A4
S1134030B4FB0A9B002B0ED0002E05D09E4203D069
S11340403100049800F0A9FB0A99049800F0A5FB3C
S113405001E00E9B03930498059900F09EFB002356
S11340602B70039B249A01331360269B0D98002B1D
S113407010D01D600EE0229B012B00DC43E6119D55
S1134080012065E6002F00DDDEE6229B022B00DC2A
S1134090DAE6AEE61DB0F0BDF0B5060005691436EB
S11340A04A113400AA4225DA1F23AD0092001940B8
S11340B07519B2183300002916D0130004CB202739
S11340C0CA40B4467F1A64469D4208D91C68BC4065
S11340D02243644604C404CBA446CA40F3E72260E6
S11340E0002A07D0043405E01C00954202D902CA14
S11340F002C3F9E7A31B9B10036100D14361F0BD28
S11341000300303B092B01D820380BE00300613B4E
S1134110052B01D8473805E00200413A0023052A5F
S113412001D82738C3B218007047F0B58DB0099193
S113413002920A93059000F0DFFA036818000793CF
S1134140FEF77CFA0222079B52421B18013B1B78A4
S113415004900B93099B19688B1C521AD118019374
S113416008910199013308783028F7D0FFF7C8FF88
S1134170061E20D1049A0799019801F0FBF8002843
S11341803CD1019B049A9C182078FFF7B9FF0028C2
S113419037D00194019B1878302803D1019B013357
S11341A00193F7E7FFF7ACFF434243410393012335
S11341B02600089302E000231E000393019C20784C
S11341C0FFF79EFF002801D00134F8E7049A07990D
S11341D0200001F0CFF800280BD1002E0BD1049B56
S11341E0E41826002078FFF78BFF002801D0013463
S11341F0F8E7371E08D0361BB70005E0019C3700EE
S113420000E00700012303932378502B01D0702B87
S113421028D163782B2B07D02D2B03D00023661CC9
S1134220069304E0012300E000230693A61C3078E3
S1134230FFF766FF431EDBB2182B13D81038013684
S113424005003078FFF75CFF431EDBB2182B03D860
S11342500A235D432818F1E7069B002B00D06D422A
S11342607F1900E02600099B1E60039B002B06D0EB
S11342700020089B834200D07FE106307DE1019B52
S11342800399E31A013B072B02DD01315B10FAE7C6
S1134290059800F04AFA030000260500143303933E
S11342A008930696019BA3422BD2631E09930B9A93
S11342B01B78934209D0069B202B15D1089B1E60C6
S11342C000260433089306960EE00123049A9C1AF0
S11342D0099B1C19019BA342EDD80799200001F00A
S11342E049F80028DED0E6E7099B1878FFF708FFB5
S11342F00F231840069B099C9840043306430693F9
S1134300D0E7089C039B40C4E41AA4102C6130003D
S113431000F0D7FA029B64011B68261A01939E429F
S113432025DDF61A3100280000F0D6FD0024A04255
S113433017D01F2101342000731E1940884001004A
S11343405A110398920012580A420AD0A34201DC7F
S1134350022406E0B11E280000F0BEFD0028F7D0BC
S1134360032431002800FFF797FEBF190EE0019BDC
S113437000249E420ADA9E1B29003200059800F0B0
S1134380D1FB030005001433BF1B0393029B9B68FE
S113439004939F4208DD0598290000F0FEF90023EC
S11343A0129AA3201360E8E0029B5E68B74259DAD0
S11343B0019BF61BB34232DC029BDB68022B1ED04E
S11343C0032B20D0012B21D1019BB3421ED1012B01
S11343D00DDC029B62205B680193019A0A9B1A60C0
S11343E00123039A2B611360129B1D60C5E00199A0
S11343F02800013900F070FD0028EAD106E0139B83
S1134400002BE6D002E0139B002BE2D10598290093
S113441000F0C3F90023129A50201360ADE0771E18
S1134420002C07D1002F06D03900280000F054FDDD
S1134430040000E001241F237A111F401E3BBB40EF
S11344400399920052581A4201D002231C43019B43
S113445031009B1B28000193FFF71EFE029B0226DE
S11344605F6800E00126002C00D181E0029BDB683C
S1134470022B0BD0032B0DD0012B77D1A20775D5BE
S1134480039A126814431C4207D16FE00123139A64
S11344909B1A1393139B002B68D02C69A3000493DD
S11344A02B00A20014339918002294461A68501C59
S11344B002D001321A6021E0624604C39942F5D861
S11344C0AB689C4212DB6B680598591C00F02DF90F
S11344D029002B6903909A1C92000C310C30FDF7D3
S11344E007FA2900059800F058F9039D2B695A1C16
S11344F02A61012204339B00EB185A602B00143309
S1134500022E12D1029A01991268013A91422BD1DA
S11345104A111F21019892000140012004008C409F
S1134520D358234220D006001EE02A6994420BDAB5
S113453001212800FFF7B0FD029B01379B6801268B
S11345409F4200DD27E70FE01F24019A0126224045
S1134550141E09D0049A9B18043B186800F0B1F9A2
S113456020210C1BA042E3DB202300E010231E4388
S11345703000129B1D600A9B1F600DB0F0BD082324
S113458070B520259A1A9200AD1A436806681C007B
S1134590AC40D34034430460436004308842F4D3D5
S11345A070BD30B503680C780133002C0AD01A783A
S11345B01500413D192D00D820320131A242F2D01C
S11345C0002001E00360012030BDF0B589B0009205
S11345D00A68009953119B00CB1802931F231A40B9
S11345E00790059202D0029B04330293029B00259C
S11345F01E1F37003400079B35601B680695039324
S11346000195039B013303931B780493002B3BD048
S11346100498FFF775FD002822D1049B202B17D89E
S1134620019B069A9342ECDDBC4206D2072D04DCC2
S11346302A0039002000FFF7A2FF009B08259C42B6
S1134640DFD90025019B271F3D6006933C00D8E776
S1134650049B292B4BD1039B079A0133136013E06E
S1134660019B013501330193082D06DD009B9C421B
S1134670C7D900230125043C23600F22236810407E
S11346801B0118432060BCE7019B002B2FD0BC42C8
S113469006D2072D04DC2A0039002000FFF76FFF43
S11346A0009B9C420AD9043302CC1A1F1160A64213
S11346B0F9D2002204C39E42FCD20DE0059B002BDC
S11346C00AD02021059A029B891A01225242CA402B
S11346D0043B19680A401A603368002B09D1009B17
S11346E09E4202D10123336003E0043EF4E7042038
S11346F000E0052009B0F0BD004870476C000020C0
S113470010B5034B0100186800F062FC10BDC046F0
S113471068000020C9B28218904204D003788B420A
S113472002D00130F8E70020704770B5466A0400F3
S11347300D00002E07D11020FFF7E2FF60624660F3
S113474086600660C660666AF368002B09D0636AF7
S1134750AA00DB689B18186800280ED002681A604B
S113476017E021220421200000F0D7FB636AF060E7
S1134770DB68002BEBD100200EE001210E00AE40DF
S1134780721D9200200000F0C8FB0028F3D04560A1
S1134790866000230361C36070BD70B5456A06007E
S11347A00C00002D07D11020FFF7AAFF70624560AE
S11347B085600560C560002C07D0726A6368D268A2
S11347C09B00D3181A6822601C6070BDF7B50700FF
S11347D008000C000D691E00002101921430019A9A
S11347E00388013153439B190668360C56431A0C4F
S11347F09446B4446246160C120494469BB2634435
S113480008C08D42EBDC002E1BD0A3689D4212DB56
S113481063683800591CFFF788FF21002369019061
S11348209A1C92000C310C30FDF762F8210038001C
S1134830FFF7B3FF019C2B1D9B00E31801355E605D
S113484025612000FEBDF7B5060018000C000830F5
S1134850092101931500FBF721FF01230021834265
S113486002DA5B000131FAE73000FFF75EFF089BD4
S1134870436101230361092D12DD230009331F0065
S1134880009364193B780100303B0A223000013761
S1134890FFF79CFFA742F5D1009B5C19083C01E09F
S11348A009250A342F00019B9F4209DA631BDB5D53
S11348B00100303B0A223000FFF788FF0137F2E79E
S11348C0FEBD00220300010C914201D10304103209
S11348D0190E01D108321B02190F01D104321B0138
S11348E0990F01D102329B001000002B03DB202022
S11348F05B0000D5501C70470722036810B5010007
S11349001A400CD001240020234223D10222134256
S113491003D0E34020000B601CE09B0818E098B231
S1134920002801D110221B0CD8B2002801D1083272
S11349301B0A180701D104321B09980701D102325E
S11349409B08D80704D45B082020002B02D0013236
S113495010000B6010BD10B50C000121FFF7E5FE3F
S113496001234461036110BDF0B50B6914001269A1
S113497089B00D00934201DA25000C002F692669E5
S1134980AA68BB1969680193934200DD0131FFF7FE
S1134990CCFE0200BB1914329B00D3189C460021A4
S11349A013000290634501D202C3FBE71435BF0034
S11349B0EB191434B6000593A31903950793079BC9
S11349C09C4251D2208800281ED015000026039F47
S11349D008CF069504936B461B8A434319002B8822
S11349E0CB1804999B19090C41432E68360C89197C
S11349F01E0C89190E0C9BB209040B4308C5059BB8
S1134A00BB42E5D8069B5E6023681D0C1FD00021C5
S1134A1010001368039F04913E8801686E43090CDB
S1134A207118049E9BB289190E043343036008CFA6
S1134A3086881B0C6B43090C9B195B18190C049199
S1134A40059906900430B942E6D806994B600434BF
S1134A500432B4E704235B429C4463461B68002B86
S1134A6005D1019B013B0193019B002BF2DC029BCE
S1134A70019A18001A6109B0F0BD00000323F7B5CC
S1134A80134005000E001400002B08D02349013BFD
S1134A909A00525800233100FFF798FE0600A31035
S1134AA0019338D06C6A002C07D11020FFF728FE40
S1134AB06862446084600460C4606F6ABC68002CEF
S1134AC010D117492800FFF746FF0023B8600400FF
S1134AD0036007E0019B5B1001931CD02068002851
S1134AE010D004000122019B1342F3D031002200B4
S1134AF02800FFF739FF070031002800FFF74DFEBB
S1134B003E00E7E7220021002800FFF72DFF0023E5
S1134B1020600360E5E73000FEBDC046B8640000D5
S1134B2071020000F0B50C0017002369551185B01F
S1134B30EB180193013300934968A3680290009A2B
S1134B40934202DA01315B00F9E70298FFF7EDFDC9
S1134B5000230200060019001432AB4203DA980065
S1134B6011500133F9E7EB43DB171D402300AD007F
S1134B7055192269143392009A1894461F2217403B
S1134B8014D00132D21B0392002219682800B940C4
S1134B900A4304C504CB0399CA409C45F5D8426036
S1134BA0002A07D0019B0233009303E004CB04C521
S1134BB09C45FBD8009B0298013B33612100FFF721
S1134BC0ECFD300005B0F0BD03690A6910B59B1A0D
S1134BD00400181E12D1930014341431E218C918B9
S1134BE0043A043913680868834204D083429B4121
S1134BF00120184302E09442F2D3002010BDF0B526
S1134C000C0085B00700110020001500FFF7DCFF41
S1134C10061E07D101003800FFF787FD0123466116
S1134C20036155E000230193984204DA23002C0029
S1134C301D000123019361683800FFF776FD019B95
S1134C4026692F00C3601434B300E31802000293F2
S1134C502B69002514379B00FB180393143208CCEE
S1134C6069469C4608CF0432009363468B808B8848
S1134C705D19009B9BB2EB1A65460193009B2D0CBA
S1134C80190C019B691A1D14131F9C466B46491984
S1134C909B880D1409040B4361460B60039BBB42C4
S1134CA0DDD8029913008C420BD202CC8BB25B1973
S1134CB01D14090C49190D149BB209040B4308C2B5
S1134CC0EFE7043B1A68002A01D1013EF9E70661C7
S1134CD005B0F0BD0F4B10B519400F4BC918002992
S1134CE002DD00220B0012E04942091500220023D4
S1134CF0132904DC802000030841030007E0143971
S1134D0001201E2902DC1F24611A884002001000C1
S1134D10190010BD0000F07F0000C0FCF7B50600CC
S1134D20036914369B00F3181D1F2C680F00200024
S1134D300193FFF7C6FD20231B1A3B601C490A2878
S1134D4013DC0B2327001B1ADF4039439C460B005E
S1134D500021AE4202D20199083909681530844015
S1134D606046C1400C4322001EE00027AE4202D23E
S1134D70019D083D2F680B388446031E11D09C40CA
S1134D80202021433C00C01AC44021430B000021D1
S1134D90B54201D9043D29686446C140A7400F4388
S1134DA001E021430B003A001000190003B0F0BDEC
S1134DB00000F03FF7B51D000121089F1400FFF724
S1134DC0B4FC2B036D0006001B0B6D0D02D080227A
S1134DD0520313430193002C18D068460094FFF744
S1134DE08BFD009C002809D0019B20211A00091A80
S1134DF08A40C34022437261019300E07461019CC4
S1134E00B461631E9C410134346107E001A8FFF7DB
S1134E1073FD0124019B346173612030002D06D0A1
S1134E200B4BED1835232D183D60181A0BE0094B78
S1134E30C018094B3860E3189B00F3185869FFF752
S1134E4040FD6401201A099B18603000FEBDC04675
S1134E50CDFBFFFFCEFBFFFFFFFFFF3FF0B585B0AB
S1134E600E0002A90700FFF759FF04000D003000EF
S1134E7003A900940195FFF751FF36693F690200C9
S1134E80BF1B7E01B446039F029E0B00F61B6644C3
S1134E90002E03DD36057119019101E036058B1BE7
S1134EA00098019900F0CAFA05B0F0BD1300013969
S1134EB010B5491112690131890014339200411867
S1134EC09A189A4202D910CB10C0FAE70023814203
S1134ED001D908C0FBE710BD30B5040002691434E1
S1134EE04B119A420CDB0CDD1F22114009D09A00B1
S1134EF0155901202A00CA408A4095420CD100E08D
S1134F0013009B00E318A34205D9043B1A68002A46
S1134F10F9D0012000E0002030BD4A4370B51100F3
S1134F20140000F055F8051E03D022000021FCF700
S1134F30E8FC280070BD000070B50500002944D0CD
S1134F400C1F2368002B00DAE418280000F039FA5B
S1134F501E4A13681100002B02D16360146031E013
S1134F60A3420DD92268A018834203D118685B6854
S1134F708218226063600C6024E0A24203D813000C
S1134F805A68002AF9D11E689819A0420BD12168E9
S1134F90711858181960824214D110685268411867
S1134FA019605A600EE0A04202D90C232B6009E07C
S1134FB021686018824203D1106852684118216048
S1134FC062605C60280000F0FDF970BDC80000203C
S1134FD0032370B5CD1C9D43083506000C2D01D26A
S1134FE00C2501E0002D01DBA94202D90C2333601A
S1134FF048E0300000F0E5F9234B1C681A0021005A
S1135000002913D00B685B1B0DD40B2B02D90B604A
S1135010CC181EE08C4202D1636813601AE04B681E
S113502063600C0016E00C004968E9E7174C23683C
S1135030002B03D1300000F08BF9206029003000F0
S113504000F086F9431C18D00323C41C9C43A042DF
S11350500DD12560300000F0B5F9200007220B3097
S1135060231D9043C31A0ED05A42E2500BE0211A7A
S1135070300000F06DF9431CEBD10C233000336099
S113508000F0A0F9002070BDC8000020C40000207A
S1135090F0B58E6885B007000C00039201939E4220
S11350A043D890238A89DB001A423ED0032509693C
S11350B0236801985B1A029363695D43EB0F5D19E2
S11350C0029B6D1001331B18AB4200D91D00530520
S11350D010D529003800FFF77BFF061E14D0029A72
S11350E02169FCF705FCA289194B13408022134364
S11350F0A38112E02A00380000F065F9061E0CD1E5
S113510021693800FFF718FF0C23402201203B607F
S1135110A38940421343A38117E0029B2661F6183A
S113512026606561019EED1AA560019BB34200D221
S11351301E0032000399206800F02EF90020A368B5
S11351409B1BA36023689E19266005B0F0BDC04672
S11351507FFBFFFFF0B59FB0029005938B890F0092
S113516016001B0610D50B69002B0DD14021FFF74B
S11351702FFF38603861002804D10C23029A0138CB
S11351801360D8E040237B61002306AD6B612033BC
S11351906B761033AB7634002378002B03D1A31B3A
S11351A0049312D003E0252BF9D00134F4E7A31BB8
S11351B0320039000298FFF76BFF431C00D1B4E0C2
S11351C06A69049B944663446B612378002B00D185
S11351D0ABE00122002352426A6002A95432521801
S11351E001342B60EB60AB601370AB65534E2178D8
S11351F005223000FFF78EFA002807D00123801B18
S113520083402A68013413432B60EFE72B68DA06E6
S113521004D55322202102A8121811701A0704D5AC
S113522053222B2102A81218117022782A2A03D0A3
S1135230099B00200A210EE0059A111D12680591B0
S1135240002A01DB099204E05242EA60022213437D
S11352502B6001340BE02278303A092A04D84B43FE
S113526001349B180120F6E7002800D00993237825
S11352702E2B1ED163782A2B0AD1059B02341A1DCA
S11352801B680592002B01DA01235B42079310E0AF
S113529000230A201A0001346B602178303909296F
S11352A004D84243013452180123F6E7002B00D0FE
S11352B00792234E217803223000FFF72BFA0028AF
S11352C006D04023801B83402A68013413432B609B
S11352D0217806221B48661C2976FFF71BFA002852
S11352E012D0194B002B06D10722059B0733934399
S11352F00833059314E005AB00933A00134B2900DF
S11353000298FCF79DFB07E005AB00933A000F4BB6
S113531029000298FCF752FE0390039B013304D04A
S11353206B69039A9B186B6135E7BB890B985B0625
S113533001D5012040421FB0F0BDC046F06400001A
S1135340F6640000FA640000411A00009150000065
S1135350002370B5064C05000800236000F024FF0C
S1135360431C03D12368002B00D02B6070BDC046C2
S11353700C090020002330B59A420BD0013AC45CDA
S1135380CD5CAC4205D19A4202D00133002CF6D157
S11353902500631B180030BD10B5884202D98B1854
S11353A0984201D3002305E09B1A013A08D3995C83
S11353B08154FAE7934203D0CC5CC4540133F9E737
S11353C010BD70477047F8B506000C0015000029A1
S11353D004D11100FFF7FCFD040018E0002A03D1FA
S11353E0FFF7AAFD2C0012E000F013F885420ED955
S11353F029003000FFF7ECFD071E07D021002A002A
S1135400FCF776FA21003000FFF796FD3C002000FF
S1135410F8BD0B1F1A68101F002A04DA8918043912
S11354200B68D0180438704702B471464908490023
S1135430095C49008E4402BC7047C046F0B556462C
S11354404D4644465F46F0B41D000E034C00CB0F9E
S113545087B0070092468146360B640D98466AD0A1
S11354606D4B9C4235D08022430F12041343F60047
S11354701E43C3009946694B00279C46002364449D
S113548002932B0368001B0BED0F51469B46400D06
S1135490009500D178E0604B98426CD05B46DA000E
S11354A04B0F802109040B4313439B465346D900F9
S11354B05A4B9C46002360444246201A6A40924656
S11354C001901F430F2F00D9B0E05548BF00C059C9
S11354D08746374300D088E00023994602330827E3
S11354E000260293CDE74346B34649460093029B08
S11354F0009A9246022B00D0BFE1002153460122BC
S1135500002689461A40444B002136030C0D24051D
S1135510360B2643434C1B0526401E437600D20718
S1135520760816434846310007B03CBC904699467D
S1135530A246AB46F0BD330003434FD0002E00D14A
S1135540BCE13000FCF7A8F803000B3B1C2B00DD8A
S1135550ADE11D220100D31A08393A008F408E4074
S1135560DA40B9461643304B00279C46002360447A
S11355704442029385E753465A4613432CD10023F1
S113558000219B46023397E70B4320D05B46002B58
S113559000D19EE15846FCF77FF803000B3B1C2B1F
S11355A000DD8FE102005946083A91408B461D21E7
S11355B0CB1A5146D9400B0059460B4351469B46E2
S11355C09140194B9C4660444042002374E70023F9
S11355D000219B4601336FE703236DE700239946BF
S11355E001330427002602934BE703230C2702937D
S11355F047E70122D51A382D00DCB0E153461A40A2
S113560000210023002689467EE700238026994650
S113561000223603004B77E7FF07000001FCFFFF81
S113562004650000FFFF0F80F30300005E4500D90E
S113563072E100D16DE1019B4D46013B01930023D2
S1135640340002935B461E020B0E1E430B020393AF
S1135650330C994633041B0C494620000093FAF797
S113566093FF009B370043430600494620009846B9
S1135670FBF710F82C0C09040C43A04509D9E419D4
S1135680731EA74200D95CE1A04500D859E1023E4F
S1135690E4194346E41A49462000FAF775FF03006B
S11356A0009A80465343494620009B46FAF7F2FF8E
S11356B02A040904120C0A4393450DD94346D2190E
S11356C0013B974200D93AE1934500D837E10223E0
S11356D05B429C46D219E0445B46D21A43463604E8
S11356E033439B460399180C0B0C1D0005930904C6
S11356F05B46090C0C001B041B0C444304915943E6
S11357006B4368431B190D0CEB189C4203D980248E
S11357106402A44660441C0C09041B04090C2018F0
S11357205D18824200D2DEE000D1D7E0161A029B57
S11357309C465D1BAC459B415B42F61AB74200D1C7
S113574006E149463000FAF71FFF009B040043437B
S1135750494630009846FAF79DFF2E0C09040E4383
S1135760B04509D9F619631EB74200D9F3E0B04534
S113577000D8F0E0023CF6194346F31A49461800F3
S11357800293FAF701FF009B06004343494602983F
S11357909846FAF77FFF2D0409042D0C0D43A84504
S11357A009D9ED19731EAF4200D9D6E0A84500D837
S11357B0D3E0023EED192404210043463143049E04
S11357C0059A3000ED1A0B040C0C1B0C584366436D
S11357D0534354439A19030C9B189E4203D98022C5
S11357E05202944664441A0C00041B04000C14195D
S11357F01B18A54250D34DD001231943964A019B4F
S113580094466344002B00DCF3E64A0709D00F22D8
S11358100A40042A05D00A1D8A42894149428B4420
S113582011005A46D20108D55A468C4B1A40934669
S11358308022D2009446019B6344894A934200DD4E
S11358405BE65A46C90850070843560251460122EE
S11358505B058146360B5B0D0A4055E680231B032E
S11358601E4211D05A461A420ED15E461E433603DA
S1135870360B2A0089467B4B46E6032B00D1E1E038
S1135880012BBBD11A40BBE61E433603360B4246FE
S1135890744B39E6002BB1D07D194A1EAF4252D960
S11358A01100A542A8D1039A9A42A5D1A6E7030004
S11358B03E00283B9E400023994654E6FBF7ECFE4D
S11358C0203041E603005246283B9A40002193468B
S11358D077E65046FBF7E0FE20305EE6029B0026AA
S11358E0AB4200D323E7039E0299B4466144884641
S11358F0B045B6415B467642F619B218013B0291B7
S1135900974213D290424FD800D18EE0161A9B468C
S11359100DE7894500D28EE674084B46F60735003C
S11359205B081D434B46DB0702938BE69742EDD1A0
S11359300399029CA142E5D93E1A9B46F7E6984694
S1135940CAE61E00A5E6AC423ED874D0110053E767
S11359500121494252E71C000EE71E002BE71F2DD0
S11359603CDC20230A0058465B1B9840EA409940DF
S11359700243481E81415E461143EE404B0709D065
S11359800F230B40042B05D00B00191D99429B419A
S11359905B42F61833023CD55346012200211A40DB
S11359A0002601238946AFE502235B429C46039C03
S11359B0E344A446029B63449846A045B64176421C
S11359C0F6190293B218B1E603988A1E4100814287
S11359D0B6417642F619AD19039161E71F2252428E
S11359E0D31A5A46DA401300202D29D040225846B3
S11359F0551BA8400143481E814107200B43184012
S1135A000026002809D00F2200261A401900042A73
S1135A10BBD10B0070077602360BDB0803439946B3
S1135A20012253461A4000236EE502998D42BBD8E9
S1135A309B4600267BE603989842C5D3110032E7C3
S1135A400020D7E780265B4636031E433603360B19
S1135A50009A8946034B57E5FF030000FFFFFFFE52
S1135A60FE070000FF070000F0B55F4656464D46AE
S1135A704446F0B40D0399464E002B0B87B0070043
S1135A80924680469B46760DCC0F002E69D06D4B16
S1135A909E4235D05B468022DD001204430F13433F
S1135AA02B439B46C3009846674B00279C46002324
S1135AB0664401934A4615035000D20F53462D0BFA
S1135AC0400D914600D176E05E4A90426CD080222F
S1135AD05B0F120413435C4AED0094461D43534686
S1135AE00022DB00604449463618701C6140029075
S1135AF017430F2F00D9AFE05448BF00C759BF4622
S1135B005B461F4300D088E000239B46984602333F
S1135B1008270193CEE74946022A6AD0032A00D116
S1135B2009E2012A00D0BBE1114000220023002534
S1135B309046CCB200212D030A0D12052D0B1543FE
S1135B40434A1B0515401D436D00E4076D082543BA
S1135B504046290007B03CBC90469946A246AB4655
S1135B60F0BD034352D05B46002B00D18AE1584676
S1135B70FBF792FD03000B3B1C2B00DD7BE11D2298
S1135B80D31A3A0001005D46DA4008398D4013000B
S1135B908F402B439B46B8462E4B00279C46002340
S1135BA060444642019385E752462A432CD100259E
S1135BB00023022297E752462A4321D0002D00D128
S1135BC054E12800FBF768FD03000B3B1C2B00DDB0
S1135BD046E11D21CB1A51460200D9405346083AEA
S1135BE0954093400D431B4A944660444042002232
S1135BF079E7012400220C40124B0025904699E7D6
S1135C000025002301226EE703226CE700239B4654
S1135C1098460133042701934CE703230C2701938F
S1135C2048E700238025984600242D03054B81E78F
S1135C305D464346019A6FE75D4643462100019A5B
S1135C406AE7C046FF07000001FCFFFF446500004F
S1135C50FFFF0F80F30300004246120C91461A0C1A
S1135C609446424617044A461B041B0C5A4360469A
S1135C7090464A4642431000039262461C003F0C81
S1135C807A437C4342440192220C9246019A524444
S1135C90904506D98246802040028046C244504640
S1135CA00390100C049048462404240C1204121986
S1135CB005922A0C2D042D0C68432C00824648467C
S1135CC07C4350438146200C804657435744474405
S1135CD0BA4503D9802040028046C144380C3F04B1
S1135CE0B84648442404240C01900498A044404439
